:020000020000FC
:2000000034044000148B40083A6800080000000000000000000000000000000000000000D7
:2000200004EDFFDE1500C0DF150240D8150380D81504C0D8150500D9150640D9150780D952
:200040001508C0D97A300B00150900DA150A40DA150B80DA150CC0DA150D00DB150E40DB94
:20006000150F80DB1510C0DB151140D904FFFFEB1512C0DB3A3109004C00802826030010B2
:2000800026020020C00F000106070000151240DF17FFBFE804FF3FE9C01C00011E02001000
:2000A00004FFFFEB1512C0DB171140D9171240DF1700C0DF7A700128170240D8170380D89C
:2000C0001704C0D8170500D9170640D9170780D91708C0D9170900DA170A40DA170B80DA62
:2000E000170CC0DA170D00DB170E40DB170F80DB1710C0DB0413C0DE3A0880EF04F9FFDE81
:200100001506C0DF150500DF040500DF3A8801003A31050015FEBFE017FEBFE015FBBFE0FC
:2001200015FD3FE04400800015FCBFE017FBFFE017FCBFE03A70841826140010340880002B
:200140000476821017FDFFE0FA9006183A88C5101700C010340880000476821017FD3FE17E
:20016000FA900820040100213A880511170080103A8809103AE83E183A8801003A310500A2
:2001800015FFBFE017FFBFE00607000017FCBFE03A88851015FCBFE017FDBFE044008010AA
:2001A00015FDBFE006E13F0015FBBFE017FBBFE01EDB3F103A8801003A8837E01701C0DF6D
:2001C000170000DF0402C0DE3A2800F804FBFFDE1504C0DF150300DF040300DF15FF3FE186
:2001E000C4FFBF0015FDBFE015FE3FE01722A0D0260700101722A0D017FDFFE03A88091835
:2002000017FF7FE117FEBFE13AE83E10060200003AA03D003A8805003A8837E01701C0DFCD
:20022000170000DF0402C0DE3A2800F83408C0061400C4DE3408800614F2A1D63408800017
:20024000140382103408C00014B6C2182603C010150000100401801036FDFF10C069010135
:20026000C071010106FF3F0004FDFFDE150140DC150000DC3A8823283A8821204401400170
:200280003A8809301502C0DFC04E01013A8809883A880B10C04D0101C4FFBF100402C08086
:2002A000350000184400000135040081CC3F0011350000813AD20410CC3F8010350180802F
:2002C00004208000350080181702C0DF170140DC170000DC0403C0DE3A2800F84C008031D2
:2002E0003A884B293A888B2935034021040400210424800035008020370080208C00801020
:200300001EFD3F1037008020FAD104104C0080103A2800F80404C02026020028041A8000B1
:20032000060100000408800035008018370080188C0080101EFD3F10370380203A2800F8D4
:20034000CC3F40293503402104040021260200300414800006010000040480003500802013
:20036000370080208C0080101EFD3F1037008020FAD104104C0080103A2800F804FEFFDE55
:20038000150000DC170220D4CC3F4021040E00011501C0DFC04D01018300C080CC3F8010BE
:2003A0002E05C0101703A0D00401C0004500C01044008000060100003A8805001701C0DF8D
:2003C000170000DC0402C0DE3A2800F8340880013A880520CC3F4029043988313AC8071104
:2003E000CC3FC0182E0440193700C0300500C0104400801006F93F003A2800F8340880006B
:20040000CC3F002104308810350000113A2800F804FCFFDE150000DC340800040420088486
:20042000150280DC041280043A8809803A880B903A880D001503C0DF150140DCC02D000161
:20044000440040043A8809803A880B883A880D00003400013A8809803A880D880401400188
:20046000003400013A8809803A880B903A880D00C02D00013A880980840040013A880D0003
:20048000003400013A880980440B40013A880D00003400013A8809803A880D883A880B00D9
:2004A000003400013A8809803A880B903A880D00C02D00013A880980C40040013A880D0083
:2004C000003400013A880980C40D40013A880D00003400013A8809803A880B003A880D8817
:2004E0001703C0DF170280DC170140DC170000DC0404C0DE0134000104FCFFDE150000DCFD
:200500003408000404200884150280DC041480043A8809803A880B903A880D001503C0DFAE
:20052000150140DCC02D00013A8809803A880B003A880D00003400013A8809803A880B0067
:200540003A880D0044004004003400013A880D883A8809803A880B90C02D00013A880980D7
:200560003A880B88403100013A8809803A880B903A880D00C02D00013A8809803A880B0037
:200580003A880D00003400013A8809803A880B883A880D00003400013A8809803A880D8811
:2005A00084164001003400013A8809803A880B903A880D00C02D00013A8809803A880B00AE
:2005C0003A880D00003400013A8809803A880B883A880D00003400013A8809803A880B90CB
:2005E0003A880D88C02D00013A8809803A880B881703C0DF170280DC170140DC170000DCC1
:200600000404C0DE4131000104F3FFDE150680DC34088004150CC0DF150BC0DD150A80DDBD
:20062000150940DD150800DD1507C0DC150540DC150400DC04108894840180003500809028
:20064000C4018000350080908301A0D08415E0D434080001CC3FC010BAD00618BA910410B0
:200660003A880F98040008213A880B0084008001150000D8150100D8150200D88515E0D0FE
:2006800045008098408701013408000174754001B4008001042008210400702904A8A13130
:2006A00034080005441620D4150380D8043A08A5802600013A88238000410001370080A0AB
:2006C000150380D8170380D84C0080101EFB3F10340800010466022104104001C03C0001D8
:2006E00034080001041602213A880B000410800140510101170220D1451B20D01703A0D0A7
:200700000300C020C4004005040B40010500C0108300C0208500C010C300C02045004015D3
:20072000C500C0100300C020266941193612C0280408400126204019360AC0281E270218B5
:200740000401C0000502C0104404C0004502C0104400C0008502C010C50200100503C010D4
:20076000061C0000440800012635001984080001265300190619020084154001269340196A
:200780003605C028C4144001262F411944150001266E0019061102004418000126FF0019B3
:2007A000841800011E0D0219051520D0440040050414800506BA0000030280204400C000BD
:2007C0001E0CC01084018000350080901703A0D04400C0004500C010340880013408000138
:2007E0003A88050004168231043808210410C00006FC0100260E0010840000011E0E001123
:2008000084018000350080903A8801003A8801003A8801003A8801003A8801003A880100FC
:200820003A8801003A8801003A8801003A880100C401800006E43F00451BE0D006E33F0006
:2008400004010001C0370001CC3F80101EE23F10051520D004E07F051702E0D10315A0D0EC
:200860008300C0382ED9FF103A8885103A8885103A8887380402C018030000190402801028
:200880003A880B003AB048250500001934080001150000D8150100D8150200D804080821DA
:2008A000040180013A888F3840870101150380D80315A0D0440080100515A0D006E63F00DF
:2008C00004010001C0370001CC3F80101EC23F10051520D0840040051702E0D10315A0D02B
:2008E000170360D18300C0382E5BC0103A8885103A8887380402C018030000198400800102
:20090000CC1F0021050000190402C0103A888510840280103A88852834080001150040DD8C
:20092000150180D8150200D8040808213A880B003A88CF3840870101150380D80315A0D0CE
:20094000440080100515A0D006E33F0004010001C0370001CC3F80101E9F3F10051520D062
:2009600004E07F051702E0D10315A0D08300C0382E96FF103A8885103A8885103A88873840
:200980000402C0180300001904028010440040013AB048250500001934080001150000D8A3
:2009A000150100D8150200D804080821040180013A888F3840870101150380D80315A0D055
:2009C000440080100515A0D006E63F0004010001C0370001CC3F80101E7F3F10051520D0FF
:2009E000840040051702E0D10315A0D0170360D18300C0382E18C0103A8885103A88873828
:200A00000402C0180300001984008001CC1F0021050000190402C0103A888510840280106A
:200A20003A88852834080001150040DD150180D8150200D804080821440040013A88CF38F8
:200A400040870101150380D80315A0D0440080100515A0D006E33F0044008000450080289E
:200A6000065D3F003A8887180302C0181E1100181703E0D03A8885103A8885103A88851878
:200A80008301E0D0050200104502001085020010C502C0100315A0D0440080100515A0D0A0
:200AA0001702E0D00315A0D08300001936ED3F1106463F001E35401D340800010420082111
:200AC000041240013A880D00C02D000134080001042008213A880B003A880DA8150380D8C4
:200AE00000340001340800013A880DA80420082104124001150380D8C02D000134080001CE
:200B0000042008213A880B00150380D840310001CC3F00111C20002104E03F218402400155
:200B2000C04E010134080001042008213A880BA80D01A0D040310001150380D8170380D8D4
:200B40000C208010260300100B01A0D0440180100D01A0D00315E0D0170220D13A88C51860
:200B60003A88C720170320D10302C0183A8885103A8885200502C0100B01E0D045028015B7
:200B80003AD208188502001106C13F00431BA0D044008010451BA0D006BE3F000401000110
:200BA000C0370001CC3F80101E0B3F10051520D01702A0D00315E0D0830000112E000119F3
:200BC0003A88C7183A88C7183A88C5100302C0101E1600184302C0101E1400188302C01067
:200BE0001E120018C302801034080001150000D88501A0D0CC3F8010BAD00610BA9104109E
:200C0000150100D8150200D8040008213A880B00840080018415E0D18515E0D04500809807
:200C200040870101150380D806030000431BA0D044008010451BA0D00315A0D044008010A4
:200C40000515A0D006DA3F004302C0203A960A188302C0203A9406183AB0C6280303402144
:200C60003AB04A19C302C0203A9206183AB0C628151AE0D04303C020030200214515E0D08B
:200C80004400C00026D4FE2026D00020840040011ED07E213408800004298810C40000018A
:200CA0003500001134084001042B4829370000294400800026FDFF203408C0000428C81863
:200CC000350080181703E0D04500801806C23E004302C020151AE0D026050018171920D132
:200CE000C4FFFF182641C0208401C00006B93E00340800018400800504E0FF05150000D876
:200D0000150100D8150200D8040808213A880B00040180014416E0D1450080854516E0D509
:200D200085000080C500008040870101150380D81702A0D0450080854516E0D503028010B8
:200D4000850000808400800526048015C400C000260EC0104400C0001E24C01034080001EB
:200D6000150000D8150100D8150200D8040808213A880B00040180014416E0D1C500808051
:200D800040870101150380D80618000034080001040808213A880B00040180014416E0D12C
:200DA000150000D8150100D8150200D8C50080804087010134080001150080DD150140DCFA
:200DC000150200D8040808213A880B003A880DB04416E0D1150380D8451620D045004085D3
:200DE00040870101150380D806750000051620D044074005C40080050316A0D0360F80A865
:200E00008400800134080001150080D9150140DC150200D8040808213A880B004416E0D1F4
:200E2000451620D04500808540870101150380D8430080804C00801026040010051520D081
:200E4000C407400504E0BF05060600000316A0D084070001440080100516A0D08077010161
:200E600006E53F000315A0D0361780A80401C0004500C0881702E0D08500008834080001E6
:200E80003A88851883028010040808213A880B00C5008088150000D8150100D8150200D845
:200EA000040180014416E0D14516A0D540870101150380D80315A0D0051620D04400801031
:200EC0000515A0D006E73F00051620D0C4004005840080054500408D34080001150080DD7E
:200EE000150140DC150200D8040808213A880B00840080014416E0D1451620D040870101AB
:200F0000150380D8430080884C0080101E0600100316A0D084070001440080100516A0D092
:200F20008077010106EB3F00171AE0D0C43F80001E218018051620D044074005C400800569
:200F40000316A0D0360F80A84500808D8400800134080001150080D9150140DC150200D878
:200F6000040808213A880B004416E0D1451620D040870101150380D8430080880C108010E9
:200F8000260700100316E0D0840780001E0A8018431BA0D044008010451BA0D00606000002
:200FA0000316A0D084070001440080100516A0D08077010106E23F00171AA0D01519A0D05E
:200FC000431BE0D01703A0D0260200184401C00006003E004400C00006FE3D008400C00067
:200FE00006FC3D003A888B110300402935004021440080101EFBFF1006B03D00CC3F002137
:201000003A8805217AD008208C2A80104C1500213AB008113A880521BAD008203A888510BA
:20102000CC0CC0200C3300113AB0C8203A9104203AD108203AB004113A2800F8051D20D148
:201040003A2800F804F5FFDE150940DD150800DD1507C0DC150680DC150540DC150400DCD1
:20106000150AC0DF3A8823203A88252844C409040418C00404E83F05840040053A8809885D
:201080003A880B90440080018403C0D9150000D8150100D8150200D88503C0DC4087010157
:2010A000040380D8150040DD150180D8150200D83A8809883A880B90440080018403C0D9AD
:2010C000C4FF3F84850300DD4087010126090080030380D8CC3FC0101C20C01804E0FF1865
:2010E00016E63F180C10801026E43F103A8805000601000044008000170AC0DF170940DD09
:20110000170800DD1707C0DC170680DC170540DC170400DC040BC0DE3A2800F804F1FFDE98
:201120004400C000150500DC150EC0DF150D00DF150CC0DD150B80DD150A40DD150900DD80
:201140001508C0DC150780DC150640DC051DE0D0CCFF3F3C1E0200803A880500064B000057
:20116000CC3FC0391E4600383A920C30170F40DC3AD220803A8827203A8829283A882B00D0
:201180003AC86534041080054400C00504F03F07CCFFBF803A888B8C263B00103AD4082846
:2011A000150440D9CC3F0021C0FF0001170440D9450380D83AD20828CC3F0021C0FF000115
:2011C000850380D8171080D8C50300D826120010071DA0D0050300DF1E0600103A880998B6
:2011E0003A880BA0400401013A882B10CC3F801026D93F1004408000150080D8150140DCF3
:20120000150200D83A8809983A880BA0040180010403C0D9061600003A8809983A880BA0FD
:20122000050380DD400401013A882B10CC3F80101E1500103A8809983A880BA004018001D2
:201240000403C0D9150000D8150100D81502C0DD408701013A880998150000D8150100D858
:20126000150200D83A880BA0044080013A880F88408701010440408CC4FF3F8406C43F008C
:201280003A880518060100003A8805A8170EC0DF170D00DF170CC0DD170B80DD170A40DDB5
:2012A000170900DD1708C0DC170780DC170640DC170500DC040FC0DE3A2800F804F5FFDEEA
:2012C000150500DC3A8821301508C0DC041880003A882738150000D8150100D8150200D8C5
:2012E000440080010403C0D9CC3F0084150780DC150640DC150AC0DF150900DD3A8823208D
:201300003A882528050380D840870101260F0080C4068000CC3F0099050380D8C0FF0001D2
:201320003A880988150000D8150100D8150200D83A880B90040180010403C0D9450380D86D
:20134000850300D8C50300D84087010104E8BF00B40B0004050380D844B031844400C00445
:20136000040400DD1500C0DC150100DD150200D83A8809883A880B90440080010403C0D9E0
:20138000C4FF3F844087010126040080070480D816F43F103A880500060100004400800006
:2013A000170AC0DF170900DD1708C0DC170780DC170640DC170500DC040BC0DE3A2800F803
:2013C0002E18002916170028040880004400C0000602000026110010160500283A884B29F1
:2013E000C4FFBF103A88C71836FA3F29260B00183A880500360240213AC849213AB0C4104F
:201400007AD006187AD00A281EFA3F181E0100303A2800F83A8805203A2800F83A880500C8
:2014200006FA3F004400C00006F13F0004FEFFDE1501C0DF150000DC160B00203A8821008A
:20144000160C00283A880D00003C01013AC807043AF084183A8805141701C0DF170000DCDD
:201460000402C0DE3A2800F83AC80901440000040EF43F283AC84B015C00008406F13F004D
:2014800004FDFFDE1502C0DF150140DC150000DC160C00203A8823003A882100160D002840
:2014A00044008001003C01013AF004143A8885881702C0DF170140DC170000DC0403C0DE94
:2014C0003A2800F83AC8090144004004C4FF3F040EF33F283AC84B0106F13F003A880D005D
:2014E000013C010144008001013C01013A880500260700204C00C0207AD0082026010018B8
:201500003A8845113A884B291EFA3F203A2800F83A2800F8CC00C0203A880520264300183E
:20152000C4FFFF31264000303A8813283A880D203A88072006040000C4FF3F3A4400803112
:20154000263900383A880F404400C01805004032CC00001A1EF83F40C40000012E2DC021D4
:20156000CC3F80293A9208303AB08C213A9408303AB08C21C40300012E18C02104FC3F3B16
:201580003AD118600401001A0402C01A3A9108600403801A3A881318040500213A880919FA
:2015A00015008049150080411500805915008051040400420404404A0404C05A04048052CB
:2015C0001EF73F41440000633A911860CC03C039C40000013A88071B2E0EC0213A88131811
:2015E0003A881138C40000011500804904FF3F420401404A36FC3F2204FF3F39BAD008206A
:20160000CC00C039440000213A8809213A8809213A880719260400383A88CF19050040197C
:201620004400C0181EFDFF193A2800F83A8807203A880F3006C83F0004FCFFDE150300DF36
:20164000040300DF15FD3FE115FE7FE115FFBFE117FEFFE017FDBFE0260C801806080000CC
:2016600017FEBFE00401C01015FEFFE017FDFFE00401001915FD3FE11700C0181500C010D8
:2016800017FEFFE017FFBFE01EF5BF183A8837E0170000DF0401C0DE3A2800F804FEFFDE0C
:2016A0001501C0DF150000DF3A8839D8340400010492102134084001040E402934088001F9
:2016C00004038231806301013404000104080021340440010408402934048001048B80311E
:2016E000806301013404000104841021340840010400402934088001040E803180630101C4
:2017000080530301407E03013A8837E01701C0DF170000DF0402C0DE3A2800F804FDFFDECE
:201720001502C0DF150100DF040100DF3A880900007E01013A88010040810101406703019E
:201740003404000104B40D21C0C90301171E20D1171FE0D01720A0D03A880B183A880D1066
:201760008060000115FFBFE044000001C043030117FF3FE100CB030104FDFFDE1502C0DFF0
:20178000150100DF040100DF15FF3FE117FF3FE1402903013A8837E01701C0DF170000DF13
:2017A0000402C0DE3A2800F804FDFFDE1502C0DF150100DF040100DF15FF3FE117FF3FE154
:2017C0003408400104FA4129005D03013A8837E01701C0DF170000DF0402C0DE3A2800F83F
:2017E00004FDFFDE1502C0DF150100DF040100DF15FF3FE100B50301440080003A70011010
:201800003A8837E01701C0DF170000DF0402C0DE3A2800F804FEFFDE1501C0DF150000DFBC
:201820003A8839D83A8801003A8801003A88010034080001041800213A880B004400800180
:2018400080B8010134080001040E0021807A010134080001043F0021C0C002013A880100FB
:201860003A8837E01701C0DF170000DF0402C0DE3A2800F804F4FFDE150B00DF040B00DF22
:2018800015FC3FE115FD7FE115FEBFE115FFFFE117FFFFE017FEBFE03A88851815F8BFE04A
:2018A0001702C0E0170180E03A88851815F9BFE0170180E015F5BFE017FEBFE015F6BFE06C
:2018C0004400800015F7BFE017FCBFE0040580103A88091017FDBFE04400C0003A9884184E
:2018E00035008020170380E08C0080101E05001017FCBFE0040380103A88071004008100A3
:201900003500801817FCBFE03700801017FCBFE0040280103700801015FABFE017FABFE014
:201920000C1080102602001017F7BFE01E03001017FABFE00C20801026F43F1017FABFE060
:201940000C108010261E001017F7BFE00E1C800017F7BFE0C4FFBF1015F7BFE017FFFFE051
:2019600017F8BFE02E0A801817FCBFE0040180103A88091017FFBFE04400C01015FFFFE00B
:2019800003008010CC3F801035008020060C000017F5BFE02608001017F5BFE0C4FFBF100C
:2019A00015F5BFE017FCBFE0040180103A8807003500C010060200000400BF0015F7BFE0F3
:2019C00017FABFE00C2080102617001017FCBFE03700801015FBBFE017F6BFE02604001040
:2019E00017F6BFE0C4FFBF1015F6BFE006050000170280E04400C0101502C0E017FBFFE0BF
:201A00000500C01017F7BFE04400801015F7BFE017F6BFE01E0400101702C0E017F9BFE07F
:201A20001E0180180601000006B83F0017FCBFE0040280103700801015FABFE017FABFE07E
:201A40000C08801026F93F10170380E04C0080101E04001017FCBFE0040380103A880700DA
:201A60003500C010170180E03A8837E0170000DF0401C0DE3A2800F804FAFFDE1505C0DF89
:201A8000150400DF040400DF15FD3FE115FE7FE115FFBFE117FDBFE01700801015FCBFE004
:201AA00017FCBFE0040AC01017FDBFE0170280103A88091817FE7FE117FFBFE13A880F104B
:201AC00000F901013A8837E01701C0DF170000DF0402C0DE3A2800F804FAFFDE1505C0DFF3
:201AE000150400DF040400DF15FD3FE115FE7FE115FFBFE117FDBFE01700801015FCBFE0A4
:201B000017FCBFE0040AC01017FDBFE0170280103A88091817FE7FE117FFBFE13A880F10EA
:201B2000C01B02013A8837E01701C0DF170000DF0402C0DE3A2800F804FCFFDE1503C0DFAF
:201B4000150200DF040200DF15FF3FE117FFBFE01700801015FEBFE017FEBFE0040AC010D6
:201B600017FFBFE0170280103A8809183A880B10C0EE01013A8837E01701C0DF170000DF11
:201B80000402C0DE3A2800F804F8FFDE1507C0DF150600DF040600DF15FD3FE115FE7FE12B
:201BA00015FFBFE117FDBFE01700801015FBBFE03A8805001E0400103A8805001E02001078
:201BC0003A8805002602001044008000060100003A88050015FCBFE017FCBFE01E0F0010D5
:201BE00017FDBFE00420C3001501C01017FBBFE00403801017FDFFE01701C0183500C01035
:201C0000150000D817FE3FE117FF7FE134048001040C873117FDFFE1008003013A8837E05A
:201C20001701C0DF170000DF0402C0DE3A2800F804FAFFDE1505C0DF150400DF040400DF86
:201C400015FF3FE117FFBFE015FCBFE017FCBFE01700801015FDBFE017FDBFE00402801098
:201C60003700801015FEBFE017FDBFE0040280103A8807003500C01017FDBFE0040280108B
:201C80003700801017FEBFE00C2080102603001017FC3FE117FE7FE180CC010117FEBFE02A
:201CA0000C1081102603001017FC3FE117FE7FE180DA01013A8837E01701C0DF170000DFB4
:201CC0000402C0DE3A2800F804FCFFDE150300DF040300DF15FE3FE115FF7FE117FFBFE0F0
:201CE000CC00801026010010062B000017FEBFE01703801017FEBFE01702801017FEBFE0B1
:201D00001703801044008010CC0F801015FDBFE017FEBFE01703801017FEFFE01700C018E8
:201D20003700C0183A88091817FEFFE03A888518040780100500001117FEBFE017FDFFE006
:201D40001503C01017FEBFE01703801044008010CC0F801015FDBFE017FEBFE01702C010B0
:201D600017FDBFE01E0C801817FEBFE01701C010C4DFBF003A70861817FEBFE01501C0100E
:201D800017FEBFE0170080100403801017FEFFE01701C0183500C0103A8837E0170000DF99
:201DA0000401C0DE3A2800F804FBFFDE150400DF040400DF15FC3FE115FD7FE117FCBFE016
:201DC0001704C01017FCBFE0170580102632801817FCBFE0170680108C0080102603001016
:201DE00017FDBFE00C008210261D001017FCBFE01704801017FCBFE01705801017FCBFE0D2
:201E0000170080100401801017FCFFE01704C01817FC3FE13A88C7200417C0180300C018F7
:201E2000CC3FC0183500C01017FCBFE0170480104400801017FCFFE015048018CC0FC0103B
:201E400017FCBFE01504C01017FCBFE0170180101410C01017FCBFE01501C010060E0000ED
:201E600017FCBFE017008010040280103700801015FDBFE017FDBFE00C0082101E06001076
:201E800017FCBFE01701C010C4EFBF003A70861817FCBFE01501C01017FCBFE01704C010B9
:201EA00017FCBFE0170580101E06801817FCBFE01701C010C4EFBE003A70861817FCBFE003
:201EC0001501C01017FCBFE0170080100403801017FCFFE01701C0183500C0103A8837E06C
:201EE000170000DF0401C0DE3A2800F804FDFFDE150200DF040200DF15FE3FE115FF7FE18F
:201F00000605000017FFBFE00C0090102602001044FDBF000606000017FEBFE01704C01072
:201F200017FEBFE0170580101EF6BF183A8805003A8837E0170000DF0401C0DE3A2800F8C3
:201F400004FEFFDE1501C0DF150000DF3A8839D83408800004FD81101700801026050010F6
:201F60003408800004FD8110170080103AE83E100602000034088000041582103A8837E0B4
:201F80001701C0DF170000DF0402C0DE3A2800F804F2FFDE150DC0DF150C00DF040C00DF13
:201FA00015FC3FE115FD7FE115FEBFE115FFFFE105F43FE015F53FE017FFBFE00C00901035
:201FC0003A000510CC3F801015F6BFE00613000017F5BFE04400801015F5BFE017FDBFE079
:201FE0004400C01015FDFFE017FCFFE01702C01817FC3FE13A88C7200407C0180300C0185F
:202000000500C01017FCBFE01702801044008010CC0FC01017FCBFE01502C01017F5FFE08D
:2020200017FEBFE00E05801817FCBFE01702C01017FCBFE0170380101EE5BF1817F5BFE0C5
:202040001E25001017FCBFE01702C01017FCBFE0170380101E20801817F6BFE01E0700107F
:2020600000F401013A880710C4028000150080184400800005F4BFE0061B00003A300500B2
:2020800015F8BFE017F8FFE084FFBF003A7084183A70011017F8BFE015F7BFE017FCBFE058
:2020A000170180101420C01017FCBFE01501C01017FCBFE0170080100403801017FCFFE0FA
:2020C0001701C0183500C01017F7BFE015F9BFE017F9BFE03A70011017F5BFE01E0200106C
:2020E00017FEBFE01EB93F103A30050015FABFE017FAFFE084FFBF003A7084183A700110B6
:2021000017FABFE015F7BFE017FCBFE0170180101420C01017FCBFE01501C01017FCBFE0BC
:20212000170080100403801017FCFFE01701C0183500C01017F7BFE015FBBFE017FBBFE06D
:202140003A70011003F4BFE02602001044FDBF000601000017F5BFE03A8837E01701C0DFB4
:20216000170000DF0402C0DE3A2800F804FEFFDE1501C0DF150000DF3A8839D83408800054
:2021800004FD811017008010260500103408800004FD8110170080103AE83E10060200005E
:2021A00034088000041582103A8837E01701C0DF170000DF0402C0DE3A2800F804F2FFDE61
:2021C000150DC0DF150C00DF040C00DF15FC3FE115FD7FE115FEBFE115FFFFE117FEBFE051
:2021E00015F4BFE017FFBFE00C00901015F5BFE0063C000017FCBFE01705801044008010B9
:20220000CC0F801015F6BFE017FCBFE01704C01017F6BFE01E22801817F5BFE026050010A2
:20222000C01602013A880710C402800015008018062E00003A30050015F8BFE017F8FFE0BC
:2022400084FFBF003A7084183A70011017F8BFE015F7BFE017FCBFE0170180101410C11093
:2022600017FCBFE01501C01017FCBFE0170080100403801017FCFFE01701C0183500C010EF
:2022800017F7BFE015F9BFE017F9BFE03A70011017FCBFE01704C01017F6BFE026FCBF1838
:2022A00017F4BFE0C4FFBF1015F4BFE017FCBFE01705C01017FDBFE04400001115FD3FE162
:2022C000030080103A88091017FCBFE03A88C510041780100500001117FCBFE017F6FFE0E8
:2022E0001505C01017F4BFE01EC23F103A30050015FABFE017FAFFE084FFBF003A70841886
:202300003A70011017FABFE015F7BFE017FCBFE0170180101410C11017FCBFE01501C010C0
:2023200017FCBFE0170080100403801017FCFFE01701C0183500C01017F7BFE015FBBFE06A
:2023400017FBBFE03A70011017FEFFE017F4BFE03AC885183A8837E01701C0DF170000DF4E
:202360000402C0DE3A2800F804FDFFDE1502C0DF150100DF040100DF15FF3FE117FF3FE188
:202380003408400104FE4129005D03013A8837E01701C0DF170000DF0402C0DE3A2800F86F
:2023A00004F7FFDE1508C0DF150700DF040700DF15FC3FE115FD7FE115FEBFE115FFFFE15A
:2023C00015F93FE017FCBFE015FABFE017FABFE0170B801017FDFFE00E06801817FDFFE07C
:2023E00017FFBFE03A88851817FAFFE0170BC0180E02801884FCBF000617000017FABFE02B
:20240000170AC01017FDBFE03A88871817FFBFE017FE3FE13A880B183A880D1040D60301EF
:2024200017FABFE0172F8010260A001017FABFE0172F8010370080100C01801015FBBFE03D
:2024400017FBBFE0200180101E020010C4FEBF0015F9BFE017F9BFE03A8837E01701C0DF7D
:20246000170000DF0402C0DE3A2800F804FAFFDE150500DF040500DF15FD3FE115FE7FE107
:2024800015FFBFE115FB3FE017FDBFE015FCBFE017FFBFE02604001017FCBFE0170CC01062
:2024A00017FFBFE01500C01017FCBFE0170C80101E03001004FDBF0015FBBFE0060D00006A
:2024C00017FCBFE0170C8010500280101E03001084FCBF0015FBBFE00606000017FEBFE0D6
:2024E0002604001017FCBFE0040DC01017FEBFE01500C01017FBBFE03A8837E0170000DFF6
:202500000401C0DE3A2800F804F9FFDE1506C0DF150500DF040500DF15FE3FE115FF7FE1A2
:2025200015FB3FE017FEBFE015FCBFE017FCBFE0170B801017FFFFE01602801884FCBF00C0
:202540000646000017FCBFE0172F80102603001017FCBFE0172E80102602001044FBBF00B1
:20256000063E000017FCBFE0173F8010C4FFFF1017FFBFE03A7084182602001084FABF003D
:202580000636000017FC3FE1400E030115FBBFE017FBBFE02602001017FBBFE0062F0000FC
:2025A00017FCBFE0172F80100401C01017FCBFE0172F801004018010370080102C003C1161
:2025C00034208000C4FFBF103AB084203500801817FFBFE00E010010C4008010BAD0051073
:2025E00015FDBFE017FCBFE0172F80100401801017FCFFE0172FC0180401C0183700C01811
:202600002C003C1917FDFFE0341CC0183AB0C6203500C01017FC3FE1400E030115FBBFE015
:2026200017FC3FE14017030115FBBFE017FCBFE0172F80100401C01017FCBFE0172F801078
:20264000040180103700001134008400C4FFBF103AB084203500801817FBBFE03A8837E06E
:202660001701C0DF170000DF0402C0DE3A2800F804F2FFDE150DC0DF150C00DF040C00DF2C
:2026800015FC3FE115FD7FE115FEBFE115FFFFE115F43FE017FCBFE015F8BFE015F53FE041
:2026A00017FEBFE015F6BFE017F8BFE0170B801017FDFFE00E0A801817F8BFE0170B801059
:2026C00017FEFFE00E06801817F8BFE0170BC01017FEBFE03AC88718170280E00E02801844
:2026E00084FCBF00068E000017F8BFE0172F80102603001017F8BFE0172E8010260200108F
:2027000044FBBF000686000017F83FE1400E030115F4BFE017F4BFE02602001017F4BFE07A
:20272000067F000017F8BFE0172F80100401C01017F8BFE0172F80100401801037008010DB
:202740002C003C1134208000C4FFBF103AB084203500801806640000C4FFBF0015FBBFE0A4
:2027600017F6BFE0CC0080101E1D001017F6BFE00401C01004FFBF003A70841815F7BFE0D2
:2027800017F7FFE017F6BFE03AC885181702C0E00E0180183A88051815F9BFE017F5BFE06A
:2027A00017FFFFE03A88871817F9BFE004FB3FE13A880B183A880D1040D6030117F5FFE02C
:2027C00017F9BFE03A88851815F5BFE01702C0E017F9BFE03AC88518150280E0062E000090
:2027E00017F6BFE0CC00801015FABFE017F6FFE017FABFE03AC8851815F6BFE017F6BFE092
:202800000401C01004FFBF003A70841815F7BFE017F7FFE017F6BFE03AC889181702C0E03B
:2028200017FABFE03A8887183A8805200E0180183A88051815F9BFE004FBFFE017FABFE0DF
:202840003A8885183A88091017F5BFE017FFFFE03A888B1817F9FFE017FABFE03AC88518FB
:202860003A880D1040D6030117F9FFE017FABFE03AC8851817F5FFE03A88851815F5BFE02E
:2028800017FAFFE017F9BFE03AC885181702C0E03A888518150280E017F8BFE0170AC010CC
:2028A00017F6BFE03A88851817FBFFE03500C01017F83FE1400E030115F4BFE017F4BFE044
:2028C00026010010060A000017F83FE14020030115F4BFE017F4BFE026010010060400008B
:2028E00017F7BFE015F6BFE0170280E01E9A3F1017F8BFE0172F80100401C01017F8BFE0FA
:20290000172F8010040180103700001134008400C4FFBF103AB084203500801817F4BFE0B5
:202920003A8837E01701C0DF170000DF0402C0DE3A2800F804F1FFDE150EC0DF150D00DF7E
:20294000040D00DF15FC3FE115FD7FE115FEBFE115FFFFE115F43FE017FFBFE015F8BFE0B4
:2029600017FDBFE015F9BFE017FCBFE015FABFE017FABFE0170B801017FDFFE00E06801896
:2029800017FABFE0170BC01017FDBFE03AC8871817FFBFE00E02801884FCBF000696000009
:2029A00015F53FE00687000017FAFFE017F5BFE03A910410040D80103A8885181700801040
:2029C00017FDFFE0167C801817FAFFE017F5BFE03A910410040D80103A8885181700C01079
:2029E00017FA3FE117F5BFE03A910410040E80103A888520170080103A88851817FDFFE01A
:202A00000E6D801817FAFFE017F5BFE03A910410040D80103A8885181700801015F7BFE0D7
:202A200015F63FE0065C000017FDFFE017F7BFE0164D801817FAFFE017F5BFE0040180103F
:202A40003A9104103A8885181700C01017F7BFE03A88851817FDFFE00E43801817FAFFE079
:202A600017F5BFE0040180103A9104103A8885181700C01017F7BFE03A88871817FDBFE030
:202A80003AC8851815FBBFE017FBFFE017FFBFE00E0180183A88051815FBBFE017FABFE05D
:202AA000170AC01017FDBFE03A88871817FBBFE017FE3FE13A880B183A880D1080CE030115
:202AC0002613001017FABFE01708801017FAFFE03A88091817F77FE13AE83E1015F4BFE0F5
:202AE00017F4BFE01E0A001017FABFE01709801017FA3FE117FBFFE01500C0D817F77FE157
:202B000017FDBFE117FEFFE13AE83E1015F4BFE017FFFFE017FBBFE0262E801817F4BFE0B8
:202B20001E2C001017FFFFE017FBBFE03AC8851815FFBFE017FAFFE017F5BFE00401801013
:202B40003A9104103A8885181700C01017F7BFE03A88851815FDBFE017FBBFE017FEFFE0EE
:202B60003A88851815FEBFE017FAFFE017F5BFE0040180103A9104103A888518170080102F
:202B800017F7FFE03A88851815F7BFE017F6BFE04400801015F6BFE017FAFFE017F5BFE079
:202BA0003A910410040F80103A8885181700801017F6FFE0169CBF1817F5BFE04400801099
:202BC00015F5BFE017FABFE0170C801017F5FFE01675BF1817FABFE0170AC01017F9BFE04C
:202BE0003A88871817F8BFE03A8809183A880B104051030117F4BFE03A8837E01701C0DF37
:202C0000170000DF0402C0DE3A2800F804F5FFDE150AC0DF150900DF150800DC040900DF4A
:202C200015FE3FE115F83FE015F93FE015FA3FE015FB3FE015FC3FE015F73FE017FEBFE09C
:202C4000040D801015FDBFE017FEBFE0172F80102619001017FEBFE0172F801037008010F8
:202C60000C08801015F8BFE017FEBFE0172F8010370080100C10801015F9BFE017FEBFE0A6
:202C8000172F8010370080100C20801015FABFE017FEBFE0172F8010370080100C40801000
:202CA00015FBBFE017FEBFE0172F8010370080100C80801015FCBFE017FEBFE017308010BD
:202CC000580080101E2F001017F8BFE0200880101E2C001017F7BFE03A91041017FDFFE070
:202CE0003A88851817FEFFE01731C0181500C01017F7BFE03A91041017FDFFE03A8885189E
:202D000017FEFFE01732001917FEFFE01731C0183AC8C7204400C0181501C01017F7BFE0B1
:202D20003A91041017FDFFE03A88A11817FEFFE017F7BFE03A910410040E80103A888518C5
:202D40001700C01017FEBFE0173F80103A8809183A880B10C04201011502808017F7BFE06A
:202D60003A91041017FDFFE03A88851817FEFFE0173FC0181503C01017F7BFE04400801097
:202D800015F7BFE017FEBFE017338010580080101E2F001017F9BFE0201080101E2C0010EC
:202DA00017F7BFE03A91041017FDFFE03A88851817FEFFE01734C0181500C01017F7BFE08C
:202DC0003A91041017FDFFE03A88851817FEFFE01735001917FEFFE01734C0183AC8C72069
:202DE0004400C0181501C01017F7BFE03A91041017FDFFE03A88A11817FEFFE017F7BFE036
:202E00003A910410040E80103A8885181700C01017FEBFE0173F80103A8809183A880B1091
:202E2000C04201011502808017F7BFE03A91041017FDFFE03A88851817FEFFE0173FC01877
:202E40001503C01017F7BFE04400801015F7BFE017FEBFE017368010580080101E2F001088
:202E600017FABFE0202080101E2C001017F7BFE03A91041017FDFFE03A88851817FEFFE0A6
:202E80001737C0181500C01017F7BFE03A91041017FDFFE03A88851817FEFFE017380019ED
:202EA00017FEFFE01737C0183AC8C7204400C0181501C01017F7BFE03A91041017FDFFE08E
:202EC0003A88A11817FEFFE017F7BFE03A910410040E80103A8885181700C01017FEBFE05B
:202EE000173F80103A8809183A880B10C04201011502808017F7BFE03A91041017FDFFE092
:202F00003A88851817FEFFE0173FC0181503C01017F7BFE04400801015F7BFE017FEBFE068
:202F200017398010580080101E2F001017FBBFE0204080101E2C001017F7BFE03A910410E5
:202F400017FDFFE03A88851817FEFFE0173AC0181500C01017F7BFE03A91041017FDFFE09E
:202F60003A88851817FEFFE0173B001917FEFFE0173AC0183AC8C7204400C0181501C0108B
:202F800017F7BFE03A91041017FDFFE03A88A11817FEFFE017F7BFE03A910410040E801015
:202FA0003A8885181700C01017FEBFE0173F80103A8809183A880B10C04201011502808056
:202FC00017F7BFE03A91041017FDFFE03A88851817FEFFE0173FC0181503C01017F7BFE05C
:202FE0004400801015F7BFE017FEBFE0173C8010580080101E2F001017FCBFE02080801094
:203000001E2C001017F7BFE03A91041017FDFFE03A88851817FEFFE0173DC0181500C01073
:2030200017F7BFE03A91041017FDFFE03A88851817FEFFE0173E001917FEFFE0173DC01830
:203040003AC8C7204400C0181501C01017F7BFE03A91041017FDFFE03A88A11817FEFFE097
:2030600017F7BFE03A910410040E80103A8885181700C01017FEBFE0173F80103A8809185F
:203080003A880B10C04201011502808017F7BFE03A91041017FDFFE03A88851817FEFFE066
:2030A000173FC0181503C01017F7BFE04400801015F7BFE017FEBFE017F7FFE0150CC0103C
:2030C00017FEBFE03A8809108036020104FFFFE61702C0DF170100DF170000DC0403C0DE79
:2030E0003A2800F804FAFFDE1505C0DF150400DF040400DF15FF3FE115FC3FE0F402800029
:203100000498AB1015FEBFE0F40280000498AB1015FDBFE0060C0000440000014029030164
:2031200017FEBFE02608001017FDBFE0C4FFBF1015FDBFE017FDBFE01E03001004E3BF001D
:2031400015FCBFE00605000017FFBFE0172F801037008010CC0080101EEF3F1017FCBFE0F8
:203160003A8837E01701C0DF170000DF0402C0DE3A2800F804FAFFDE1505C0DF150400DF3F
:20318000040400DF15FF3FE115FC3FE0F40280000498AB1015FEBFE0F40280000498AB1098
:2031A00015FDBFE0060C0000440000014029030117FEBFE02608001017FDBFE0C4FFBF1063
:2031C00015FDBFE017FDBFE01E03001004E3BF0015FCBFE00605000017FFBFE0172F80106E
:2031E000370080100C04801026EF3F1017FCBFE03A8837E01701C0DF170000DF0402C0DE28
:203200003A2800F804FAFFDE1505C0DF150400DF040400DF15FF3FE115FC3FE0F402800007
:203220000498AB1015FEBFE0F40280000498AB1015FDBFE0060C0000440000014029030143
:2032400017FEBFE02608001017FDBFE0C4FFBF1015FDBFE017FDBFE01E03001004E3BF00FC
:2032600015FCBFE00605000017FFBFE0172F8010370080100C02801026EF3F1017FCBFE08D
:203280003A8837E01701C0DF170000DF0402C0DE3A2800F804FAFFDE1505C0DF150400DF1E
:2032A000040400DF15FF3FE14402800015FDBFE017FD3FE1F403400104905029C04E0101F3
:2032C00074750001040030213A880B10C04D010134002001C4FF3F213A880B10C04D01015F
:2032E00017FF3FE13A880B10C04D010115FEBFE017FEBFE0262A001015FC3FE00617000099
:203300003400A000C4FFBF10C4FFBF101EFE3F1017FD3FE1F403400104905029C04E0101C1
:2033200074750001040030213A880B10C04D010134002001C4FF3F213A880B10C04D0101FE
:203340003A88071017FFBFE03AC8C51015FFBFE017FCBFE04400801015FCBFE017FCFFE02D
:2033600017FEBFE016E6BF1817FD3FE1F403400104905029C04E01017475000104003021FE
:203380003A880B10C04D01013A88091017FF7FE1C04E0101C4FFBF101EFE3F10060D0000D0
:2033A00017FD3FE1F403400104905029C04E010174750001040030213A880B10C04D010159
:2033C0003A88091017FF7FE1C04E0101C4FFBF1016FEBF003A8805003A8837E01701C0DFD0
:2033E000170000DF0402C0DE3A2800F804FEFFDE1501C0DF150000DF3A8839D834088000C2
:2034000004FD811017008010260500103408800004FD8110170080103AE83E1006020000CB
:2034200034088000041582103A8837E01701C0DF170000DF0402C0DE3A2800F804FBFFDEC5
:203440001504C0DF150300DF040300DF15FF3FE117FFBFE01608001017FF3FE10403400142
:20346000C04E01013A88071034088000048980103A888518060100003A88050015FDBFE0AC
:2034800017FDBFE02619001017FDBFE017008010170480102606001017FDBFE0170080108F
:2034A0001704801017FD3FE13AE83E10060100003A88050015FEBFE017FF3FE100AD030156
:2034C00017FEBFE00E070010C03E03013A88071017FEBFE03AC8850015008018C4FFBF00CE
:2034E000060700003A88050006050000C03E03013A8807104414800015008018C4FFBF000B
:203500003A8837E01701C0DF170000DF0402C0DE3A2800F804FDFFDE150200DF040200DF6E
:2035200015FE3FE115FF7FE13A8837E0170000DF0401C0DE3A2800F804FFFFDE150000DF44
:203540003A8839D83A8837E0170000DF0401C0DE3A2800F804FCFFDE150300DF040300DF12
:2035600015FD3FE115FE7FE115FFBFE117FFBFE03A8837E0170000DF0401C0DE3A2800F871
:2035800004FEFFDE1501C0DF150000DF3A8839D83408800004FD81101700801026050010A0
:2035A0003408800004FD8110170080103AE83E100602000034088000041582103A8837E05E
:2035C0001701C0DF170000DF0402C0DE3A2800F804FAFFDE1505C0DF150400DF040400DFCD
:2035E00015FE3FE115FF7FE117FEBFE02603001017FEBFE0170280101E060010005803014A
:203600003A880710840580001500801884FABF000613000017FEBFE017FFFFE015FCFFE02C
:2036200015FDBFE017FDBFE017FCFFE01501C01017FCBFE01700C01017FDBFE01500C0101D
:2036400017FCBFE01700801017FDFFE01501C01017FCBFE017FDFFE01500C0103A880500E7
:203660003A8837E01701C0DF170000DF0402C0DE3A2800F804FDFFDE1502C0DF150100DF3D
:20368000040100DF340480000483901015FFBFE00606000017FFBFE0170080103AE83E10DC
:2036A00017FFBFE004FFBF1015FFBFE017FFFFE034048000048490102EF6BF183A8837E027
:2036C0001701C0DF170000DF0402C0DE3A2800F804FDFFDE1502C0DF150100DF040100DFD2
:2036E000340480000483901015FFBFE00606000017FFBFE0170080103AE83E1017FFBFE0AB
:2037000004FFBF1015FFBFE017FFFFE034048000048490102EF6BF183A8837E01701C0DFC4
:20372000170000DF0402C0DE3A2800F804FCFFDE1503C0DF150200DF040200DF15FF3FE1F2
:2037400017FF3FE1040C60D100B7030115FEBFE017FEBFE02609001017FEBFE01703801034
:203760002606001017FEBFE01703801017FE3FE117FF7FE13AE83E100601000017FEBFE0D9
:203780003A8837E01701C0DF170000DF0402C0DE3A2800F804FDFFDE1502C0DF150100DF1C
:2037A000040100DF15FF3FE117FFBFE02607001017FFBFE0170480102604001017FFBFE0B0
:2037C0001704801017FF3FE13AE83E103A8801003A8837E01701C0DF170000DF0402C0DEAB
:2037E0003A2800F804FFFFDE150000DF3A8839D83A8837E0170000DF0401C0DE3A2800F8FC
:2038000004F9FFDE1506C0DF150500DF040500DF15FC3FE115FD7FE115FEBFE115FFFFE1E9
:20382000170280E0150080D817FC3FE117FD7FE117FEBFE117FFFFE1009E03013A8837E0D5
:203840001701C0DF170000DF0402C0DE3A2800F804F9FFDE150600DF040600DF15FE3FE1CD
:2038600015FF7FE117FFBFE015FABFE03A30050015FBBFE017FBFFE084FFBF003A708418DA
:203880003A70011017FBBFE015FCBFE017FABFE04400C0003A9884183A8807103408800055
:2038A00004138210170080103AB0861834088000041382101500C010340880000413821081
:2038C00017008010FA70011017FCBFE015FDBFE017FDBFE03A7001103A8805003A8801006B
:2038E0003A8837E0170000DF0401C0DE3A2800F804F9FFDE150600DF040600DF15FE3FE10C
:2039000015FF7FE117FFBFE015FABFE03A30050015FBBFE017FBFFE084FFBF003A70841839
:203920003A70011017FBBFE015FCBFE017FABFE04400C0003A9884183A3084003A88071082
:203940003408800004138210170080103A70861834088000041382101500C010340880000D
:203960000413821017008010FA70011017FCBFE015FDBFE017FDBFE03A7001103A880500E4
:203980003A8801003A8837E0170000DF0401C0DE3A2800F804FCFFDE150300DF040300DFDE
:2039A00015FE3FE115FF7FE1FA30050015FDBFE017FFBFE04400C0003A9884183A88071080
:2039C00017FDBFE03A7084183AC00410CC3F80103A8837E0170000DF0401C0DE3A2800F879
:2039E00004F5FFDE150AC0DF150900DF040900DF15FC3FE115FD7FE115FEBFE115FFFFE100
:203A000084FABF0015F7BFE017FDBFE015F8BFE017F8BFE0080880101E2700103A3005004D
:203A200015FABFE017FAFFE084FFBF003A7084183A70011017FABFE015F9BFE0340880008C
:203A40000476821017F8FFE0FA9006183A88C51017FEFFE01500C01034088000047682108C
:203A600017F8FFE0FA9006180401C0183A88C51017FFFFE01500C01017FEBFE02605001073
:203A800017F8BFE017FC3FE13A880B10008503010604000017F8BFE017FC3FE13A880B1017
:203AA000008F030115F7BFE017F9BFE015FBBFE017FBBFE03A70011017F7BFE03A8837E078
:203AC0001701C0DF170000DF0402C0DE3A2800F804FCFFDE1503C0DF150200DF150100DCBF
:203AE000040200DF15FE3FE117FEBFE0D00080101E110010340800040489008417FEBFE056
:203B00003A88091004034001C04E0101040280103A8885801500001034080004048900849F
:203B200017FEBFE03A88091004034001C04E01013A8885801500001004FFFFE61702C0DF12
:203B4000170100DF170000DC0403C0DE3A2800F804FFFFDE150000DF3A8839D8FA7001006A
:203B60003A8837E0170000DF0401C0DE3A2800F804FAFFDE1505C0DF150400DF040400DF06
:203B800015FE3FE115FF7FE117FFBFE01700801015FCBFE017FE3FE1C0E9030144008010BC
:203BA00015FDBFE0060D000017FCBFE01702C01017FDBFE03A88091817FE7FE13A880D10BC
:203BC00080CE03011E02001017FCBFE00607000017FCBFE01700801015FCBFE017FCFFE0A9
:203BE00017FFBFE01EF0BF183A8805003A8837E01701C0DF170000DF0402C0DE3A2800F8E0
:203C000004FEFFDE150100DF040100DF15FF3FE117FFBFE084FEBF102804C0101E1A001866
:203C2000BA90061034048000040E8F103A888518170080103A680010783C1000783C10007B
:203C4000883C1000883C1000883C1000783C1000803C1000883C1000783C1000783C1000FC
:203C6000883C1000783C1000803C1000883C1000883C1000783C10004400800006030000A7
:203C80003A880500060100003A8805003A8837E0170000DF0401C0DE3A2800F83A880B20D6
:203CA0003A880D003A8809003A880F0041F3030104FEFFDE3A880B00150000DC1501C0DF0F
:203CC0003A88212080040401340880000401821017000011170F8020260100103AE83E1070
:203CE0003A880980C01D0401C400C0012E1980393AB044213A70C411260F0010030080205C
:203D00000300C0281E15C01084FFBF31C4FFFF0106040000030080200300C028C4FFBF3134
:203D20001E0EC01044000021440040291EF9FF313A8805003A2800F81700C0201700802857
:203D40001E04801804FFBF31040100210401402936F9BF391EE93F3006F53F003AC8C51074
:203D60003A2800F804FFFFDE150000DCC403C0003A8805202E4380193AB04621CC00C018AB
:203D80001E42001804FC3F343AD120800401C028040140233A911E800402002B0402C022B6
:203DA0000405C07B0403802A040340223A88DF2B3A8811283A880F20170000410404C03994
:203DC0000404C01815FC3F3917FCBF1B0404406B0404C05A15FCBF6B170080630404404AF1
:203DE0000404004215FCBF5B17008053040400630404805215FCBF4B1EEFFF1B4400C08158
:203E00003A910E38CC030031C400C0023A88C7113A88CB292E1F00593A8813183A8811282D
:203E20003A880F20170080420401404A04FFFF3915FFBF4A0401004236FAFF5904FF3F219F
:203E4000BAD00820CC008031440000213A8809213A8809213A8807193A880B2926060030C2
:203E60003A888D190300C0294400C01844004029C5FFFF191EFBBF19170000DC0401C0DEC2
:203E80003A2800F83A88072006F43F003A88072006F33F003A880D2006F03F00CC008020F5
:203EA0002620001007008020262000103A880520060200000700C0102618001844008010BF
:203EC000CC00C0101EFB3F181700C010F4BFFF01C4BFFF393A30CA007420A0013A88C71976
:203EE0000420A0313A7046193A7086191E090018040180101700C0103A88CB193A30C600EA
:203F00003A70C6283A70861926F93F1806010000440080100700C0101EFD3F183AC805110E
:203F20003A2800F83A88052006E73F003A8805003A2800F83408800004FAFFDE04018210C5
:203F4000150300DC17000014150440DC1505C0DF175280803A882320263600101701C01092
:203F6000C4070001160EC0204400401A1E2100888400C0183A88C7183A88C7181501401206
:203F80003A88C710150040193A8805001705C0DF170440DC170300DC0406C0DE3A2800F869
:203FA00034008000040080102625001004640001150040D9150180D91502C0D900000000A8
:203FC000170040D9170180D91702C0D9261C00101752C08015010010440040021500C01002
:203FE0001552808015620010156300103A88070026DF3F883A88D1183A8811423A88111211
:204000001522804144000001176280113A98C8203AB00C31156280111542C0418400800113
:204020001ED3BF89176380113AB008311563001106CF3F00045380801552808006C73F00B2
:20404000C4FFBF0006D13F0034088000040182101700801004F4FFDE150880DD150080D812
:2040600004528010150600DD150480DC150BC0DF150A00DF1509C0DD150740DD1505C0DC86
:20408000150340DC150200DC3A8825203A882928150180D8C4FFBF05170080D81752C0143E
:2040A000261D0098170140DD17018098C4FF3F17160D00E0440000143A8821843A8821847E
:2040C000042040843A88639C3A88219C261E00A017408080261C0015C4FF3FE704FF3F8477
:2040E00004FF7F8C1EF9BFE5340080000400801026090010170180981E31001017008098B2
:20410000263400103A880998150080A8000000001700C0AC1EE43F98170BC0DF170A00DF78
:204120001709C0DD170880DD170740DD170600DD1705C0DC170480DC170340DC170200DCB7
:20414000040CC0DE3A2800F8170180981700C080C4FFBF10261500171500008026DE3F18FC
:20416000440080003A980817176280981701C09D3A7084201E0600103AE83E18170180985A
:204180001EC5FF15170080A826D3FF1406C23F00176380983A7084201E06001017004089E2
:2041A0003A8809903AE83E1806F43F001501009F06EA3F00170000893AE83E1806EF3F00C3
:2041C000170080983A882B983A8827101EB63F9806D13F003A88050006FA3F0004FDFFDE8D
:2041E000150200DF040200DF15FF3FE13A88010017FFBFE015FEBFE017FEBFE0260200109A
:2042000070F02A0006010000B0F02A0006FF3F002F6465762F756172740000002F64657638
:204220002F6F6E636869705F666C6173685F305F64617461000000002F6465762F6E756CED
:204240006C0000004300000000000000000000000000200000000000381B1000781A10008A
:20426000D81A1000000000000000000000000000602020000000000000000000000000009C
:2042800000000000000000000100000000000000000000000000000000000000000000001D
:2042A0000000000000000000000000000000000000000000000000000000000000000000FE
:2042C0000000000000000000000000000000000000000000000000000000000000000000DE
:2042E0000000000000000000000000000000000000000000000000000000000000000000BE
:2043000000000000000000000000000000000000000000000C002000000000000000000071
:2043200034291000A02310006C24100008251000702610000000100000C0080000000000E2
:2043400000000000000000000000000000000000000000000000000000000000000000005D
:2043600000000000000000000000000000000000000000000000000000000000000000003D
:2043800000000000000000000000000000000000000000000000000000000000000000001D
:2043A0000000000000000000000000000000000000000000000000000000000000000000FD
:2043C0000000000000000000F02020000100000000000000FF3F000001000000004000002D
:2043E000FF7F00000100000000800000FFDF02000100000000E00200FF9F04000100000058
:2044000000A00400FFBF080000100000E8072000E8072000280020000000000000000000BC
:204420000000000054351000000000000000000000000000FC0120000000000000000000C6
:20444000FC0120000000000000000000FC0120000000000000000000000000000000000022
:2044600000000000000000000000000000000000000000000000000000000000000000003C
:2044800000000000000000000000000000000000000000000000000000000000000000001C
:2044A0000000000000000000000000000000000000000000000000000000000000000000FC
:2044C0000000000000000000000000000000000000000000000000000000000000000000DC
:2044E0000000000000000000000000000000000000000000000000000000000000000000BC
:2045000000000000000000000000000000000000000000000000000000000000000000009B
:2045200000000000000000000000000000000000000000000000000000000000000000007B
:2045400000000000000000000000000000000000000000000000000000000000000000005B
:2045600000000000000000000000000000000000000000000000000000000000000000003B
:2045800000000000000000000000000000000000000000000000000000000000000000001B
:2045A00000000000000000000000000000000000000000000000000090062000F806200027
:2045C000600720000000000000000000000000000000000000000000000000000000000054
:2045E000000000000000000034002000000000000000000000000000000000000000000067
:2046000000000000000000000000000000000000000000000000000000000000000000009A
:2046200000000000000000000000000000000000000000000000000000000000000000007A
:20464000000000000000000000000000000000000000000000000000010000000000000059
:204660000E33CDAB34126DE6ECDE05000B000000000000000000000000000000000000000E
:2046800000000000000000000000000000000000000000000000000000000000000000001A
:2046A0000000000000000000000000000000000000000000000000000000000000000000FA
:2046C0000000000000000000000000000000000000000000000000000000000000000000DA
:2046E0000000000000000000000000000000000000000000000000000000000000000000BA
:20470000000000000000000000000000000000000000000000000000000000000000000099
:20472000000000000000000000000000000000000000000000000000000000000000000079
:20474000000000000000000000000000000000000000000000000000000000000000000059
:20476000000000000000000000000000000000000000000000000000000000000000000039
:20478000000000000000000000000000000000000000000000000000000000000000000019
:2047A0000000000000000000000000000000000000000000000000000000000000000000F9
:2047C0000000000000000000000000000000000000000000000000000000000000000000D9
:2047E0000000000000000000000000000000000000000000000000000000000000000000B9
:20480000000000000000000000000000000000000000000000000000000000000000000098
:20482000000000000000000000000000000000000000000000000000000000000000000078
:20484000000000000000000000000000000000000000000000000000000000000000000058
:20486000000000000000000000000000000000000000000000000000000000000000000038
:20488000000000000000000000000000000000000000000000000000000000000000000018
:2048A0000000000000000000000000000000000000000000000000000000000000000000F8
:2048C0000000000000000000000000000000000000000000000000000000000000000000D8
:2048E0000000000000000000000000000000000000000000000000000000000000000000B8
:20490000000000000000000000000000000000000000000000000000000000000000000097
:20492000000000000000000000000000000000000000000000000000000000000000000077
:20494000000000000000000000000000000000000000000000000000000000000000000057
:20496000000000000000000000000000000000000000000000000000000000000000000037
:20498000000000000000000000000000000000000000000000000000000000000000000017
:2049A0000000000000000000000000000000000000000000000000000000000000000000F7
:2049C000000000000000000000000000000000000000000000000000980820002C01860064
:2049E0009809200058082000D8072000D8072000E0072000E0072000FC012000FC01200030
:204A0000FFFFFFFF00000000F8072000F8072000FFFFFFFFA4032000A403200000000000D2
:204A2000000000000000000000000000000000000000000000000000000000000000000076
:204A4000000000000000000000000000000000000000000000000000000000000000000056
:204A6000000000000000000000000000000000000000000000000000000000000000000036
:204A8000000000000000000000000000000000000000000000000000000000000000000016
:0200000280007C
:00000001FF
