:020000020000FC
:2000000034044000148C40083A6800080000000000000000000000000000000000000000D6
:2000200004EDFFDE1500C0DF150240D8150380D81504C0D8150500D9150640D9150780D952
:200040001508C0D97A300B00150900DA150A40DA150B80DA150CC0DA150D00DB150E40DB94
:20006000150F80DB1510C0DB151140D904FFFFEB1512C0DB3A3109004C00802826030010B2
:2000800026020020C00F000106070000151240DF17FFBFE804FF3FE9001D00011E020010BF
:2000A00004FFFFEB1512C0DB171140D9171240DF1700C0DF7A700128170240D8170380D89C
:2000C0001704C0D8170500D9170640D9170780D91708C0D9170900DA170A40DA170B80DA62
:2000E000170CC0DA170D00DB170E40DB170F80DB1710C0DB0413C0DE3A0880EF04F9FFDE81
:200100001506C0DF150500DF040500DF3A8801003A31050015FEBFE017FEBFE015FBBFE0FC
:2001200015FD3FE04400800015FCBFE017FBFFE017FCBFE03A70841826140010340880002B
:200140000434821017FDFFE0FA9006183A88C5101700C010340880000434821017FD3FE102
:20016000FA9008203A88051104018010170080103A8809103AE83E183A8801003A31050033
:2001800015FFBFE017FFBFE00607000017FCBFE03A88851015FCBFE017FDBFE044008010AA
:2001A00015FDBFE006E13F0015FBBFE017FBBFE01EDB3F103A8801003A8801003A8837E061
:2001C0001701C0DF170000DF0402C0DE3A2800F804FBFFDE1504C0DF150300DF040300DF03
:2001E00015FF3FE1C4FFBF0015FDBFE015FE3FE01727A0D0260700101727A0D017FDFFE0DA
:2002000017FEBFE117FF7FE13A8809183AE83E10060200003AA03D003A8805003A8837E0A1
:200220001701C0DF170000DF0402C0DE3A2800F83408C0061400C4DE3408800614ABA1D663
:200240003408800014BA81103408C0001474C2182603C010150000100401801036FDFF1030
:20026000400902018011020106FF3F0004FDFFDE150140DC150000DC3A8823283A88212049
:20028000440140013A8809301502C0DF40D901013A880B103A88098880CD0101C4FFBF10FB
:2002A0000402C080350000184400000135040081CC3F0011350000813AD20410CC3F80101F
:2002C0003501808004208000350080181702C0DF170140DC170000DC0403C0DE3A2800F899
:2002E0004C0080313A884B293A888B2935034021040400210424800035008020370080203F
:200300008C0080101EFD3F1037008020FAD104104C0080103A2800F80404C0202602002833
:20032000041A8000060100000408800035008018370080188C0080101EFD3F103703802090
:200340003A2800F8CC3F40293503402104040021260200300414800006010000040480008E
:2003600035008020370080208C0080101EFD3F1037008020FAD104104C0080103A2800F85F
:2003800004FEFFDE150000DC170420D4CC3F4021040E00011501C0DF80CD01018300C08038
:2003A000CC3F80102E05C0101705A0D00401C0004500C01044008000060100003A880500A7
:2003C0001701C0DF170000DC0402C0DE3A2800F8CC3F4029BAD00A28340880013A880500C1
:2003E00004418831CC3FC010260540193700C0301500C020440080100401002106F93F004C
:200400003A2800F834088000CC3F002104388810350000113A2800F804FCFFDE150000DC58
:200420003408000404280884150280DC041280043A880B903A8809803A880D001503C0DF89
:20044000150140DC002E0001440040043A880B883A8809803A880D00403400013A880D8878
:200460003A88098004014001403400013A880B903A8809803A880D00002E00013A88098085
:200480003A880D0084004001403400013A8809803A880D00440B4001403400013A880D88DD
:2004A0003A8809803A880B00403400013A880B903A8809803A880D00002E00013A880980BE
:2004C0003A880D00C4004001403400013A8809803A880D00C40D4001403400013A880D88DB
:2004E0003A880B003A8809801703C0DF170280DC170140DC170000DC0404C0DE4134000173
:2005000004FCFFDE150000DC3408000404280884150280DC041480043A880B903A8809805E
:200520003A880D001503C0DF150140DC002E00013A8809803A880D003A880B004034000178
:200540003A8809803A880D003A880B0044004004403400013A880D883A880B903A880980B8
:20056000002E00013A880B883A880980803100013A880B903A8809803A880D00002E000154
:200580003A8809803A880D003A880B00403400013A880B883A8809803A880D00403400011B
:2005A0003A880D883A88098084164001403400013A880B903A8809803A880D00002E0001A3
:2005C0003A8809803A880D003A880B00403400013A880B883A8809803A880D0040340001DB
:2005E0003A880B903A8809803A880D88002E00013A880B883A8809801703C0DF170280DCFF
:20060000170140DC170000DC0404C0DE813100013408800004318810C400C0003500C01048
:200620003408000104330821440080003700C02026FEBF1834088000043088104400C000BB
:200640003500C0103A2800F804F2FFDE150400DC34080004150DC0DF150C00DF150BC0DDB5
:20066000150A80DD150940DD150800DD1507C0DC150680DC150540DC0418088484018000B7
:2006800035008080C4018000350080808303A0D034080001041AE0D1CC3FC010BAD0061826
:2006A000BA910410840080013A880B0004080821150200D8150100D8150000D8051AE0D03B
:2006C000451AA0D000270201B4008001B49840013408000104A8A13104805629042808214C
:2006E000150380D8441B60D4C0260001804100013408C0000442C81837008018150380D8ED
:20070000170380D84C0080101EF93F10340800010410400104240221003D000134080001CD
:200720003A880B0004D401210410800140F00101170460D1452020D01705A0D00300C02813
:20074000441400010500C0108300C0288500C010C300C028C500C010C400C0004500C010D2
:200760000300C028264A00193616C0208408000126990019360DC02004080001265C0019A9
:200780003675C0201E0D04184401C0000502C0104404C0004502C0104400C0008502C01031
:2007A000C50200100503C01006050400C4130001261800193633C020040B0001263603197B
:2007C00006FE03008415000126C600193606C020C4140001269302193631001944150001D0
:2007E00026A0001906F5030084180001260D02193603C02044180001265F021906EF030023
:200800000423000126DD0019442300012693011906EA030004E0BF00C51AA0D004F1BF00C0
:20082000051BA0D0430280284400800434080001451BA0D003028028C41AE0D1150200D83B
:20084000150100D8150000D8040180013A880B9004100821851BA0D000270201150380D8F3
:200860001705A0D04500801434088001340800013A88050004D48131044008210410C00087
:2008800006D10300C51A20D004F1BF000606000004E0BF00C51AA0D084F1BF0006E03F00A4
:2008A000C51A20D084F0BF00840080014400800434080001150200D8150140DC150080D99D
:2008C000C41AE0D13A880B9004100821051BA0D000270201150380D8831BE0D01705A0D0EB
:2008E0000502C010431BE0D04502C01006DD3F00030280284400C0002610C01026120010DB
:20090000840000011E12001184018000350080803A8801003A8801003A8801003A880100CB
:200920003A8801003A8801003A8801003A8801003A8801003A880100060300008401800017
:200940003500808006090200C401800006FC3F004520E0D00605020004010001003800016A
:20096000CC3F80101EC03F10051820D004E0BF041704E0D10318A0D08300C0382EFBC1102F
:200980003A8885103A8885103A8887380402C01803000019040280103A888F383AB0882479
:2009A0000500001934080001150200D8150100D8150000D8040180013A880B000410082182
:2009C00000270201150380D80318A0D0440080100518A0D006E63F00040100010038000127
:2009E000CC3F80101EA03F10051820D084008004170420D10318A0D01705A0D18300C020B3
:200A00002E5BC0103A8885103A8887200402C018030040190402C0113A888510CC1F402901
:200A200084028010050040193A8885303A88CF2134080001150200D8150180D8150080DC0E
:200A4000840080013A880B000410082100270201150380D80318A0D0440080100518A0D001
:200A600006E33F000401000100380001CC3F80101E7D3F10051820D004E0BF041704E0D10A
:200A80000318A0D08300C0382EB8C1103A8885103A8885103A8887380402C0180300001970
:200AA000040280103A888F383AB088240500001934080001150200D8150100D8150000D85C
:200AC00004018001440040010410082100270201150380D80318A0D0440080100518A0D048
:200AE00006E63F000401000100380001CC3F80101E5D3F10051820D084008004170420D106
:200B00000318A0D01705A0D18300C0202E18C0103A8885103A8887200402C018030040194A
:200B20000402C0113A888510CC1F402984028010050040193A8885303A88CF213408000159
:200B4000150200D8150180D8150080DC84008001440040010410082100270201150380D866
:200B60000318A0D0440080100518A0D006E33F004400800045008030063B3F004302C028FB
:200B80004303802C3A9608188302C0284518A0D43A9406183AB0C620030300293AB008193F
:200BA000C302C0283A9206183AB0C62083040029151FE0D01EFD0220C3040029C4008001C8
:200BC0001E3D80210302C0281EF80218340800013A880D000414400104280821002E000113
:200BE0004520A0D01704A0D0340800013A880D0003044011042808213A8825004034000180
:200C00004320E0D0340800013A880D003A88C5104520A0D01704A0D00428082143044011D1
:200C2000403400014320E0D03A88C5104520A0D04318E0D01704A0D0C4FFFF180E0DC090E5
:200C40003A88851403084011340800013A880D0004280821403400014320E0D004E2040109
:200C6000440080943A88C5104520A0D08017020106EF3F003A88A514030840914400C00483
:200C8000340800013A880D9804280821403400014320E0D004E204013A88C5104520A0D07C
:200CA000801702014320E0D01705A0D01EBF02184500C01406EC3E00440080011EBB82217A
:200CC00003028029840000011EB802311E040018151720D0151620D0151420D0152120D028
:200CE000171620D5044080003AC805151515A0D00E158000CC3F80940E0280901514A0D4D9
:200D0000060100001514A0D01714E0D43408000104E401213A880D98040840293A88092541
:200D20003A88E7A4C0DB01011516E0D4044080001E0200900E01C0041516A0D01716E0D02B
:200D40003AC8C5101515A0D01716A0D0C43FC0000E2880181717E0D13A70C4381E10001031
:200D60000E0100383A88CF383AD20F383408000144008001CC3FC0393A880B000400082110
:200D800000AE0101CC3F8010260300104320A0D0440080104520A0D04320A0D01E0F001043
:200DA000340880001717A0D104E4811034080001150100D8150080D80440C0013A880B00F5
:200DC0000400082180960101CC3F8010260300104320A0D0440080104520A0D01717A0D0E0
:200DE000151620D0440080101517A0D0044080001515A0D0431820D51714A0D40E0F009569
:200E00003AC8A7A4170460D11716A0D43408000104E401213A8889243A880DA004084029FE
:200E20001514E0D4C0DB01013A88A59C044080001516A0D43AC8A5141515A0D41721A0D1D0
:200E40003440C0001705A0D03A888DA11521A0D1365682194320E0D0065302004302C02879
:200E60003A9608188302C0283A9406183AB0C620030300293AB00819C302C0283A92061888
:200E80003AB0C620151FE0D04303C0284518E0D08304C0281E450218C304C028C400000103
:200EA0001E3B00190302C0281E400218340800013A880D000414400104280821002E000172
:200EC0004520A0D01704A0D0340800013A880D0003044011042808213A882500403400019D
:200EE0004320E0D0340800013A880D003A88C5104520A0D01704A0D00428082143044011EF
:200F0000403400014320E0D034080001440080013A88C51004144001042808214520A0D02D
:200F2000002E00014320E0D03A88C5104520A0D04318A0D01705E0D4C4FFBF100E088090B0
:200F4000340800013A880B00042808213A88A79C80310001050880984400809406F43F00C5
:200F600044000005340800013A880BA004280821803100014320E0D03A88A59C0508809044
:200F80001705A0D01E0902184500001506363E00440000011E05021983038028340880043F
:200FA00004E481943A960C10C3038028340800010440C0013A940410040008213AB08430EB
:200FC000430480293AB08C1103048028150080DC3A880B003A9204103AB08C301517A0D18A
:200FE00080830101CC3F8010260300104320A0D0440080104520A0D01705A0D0431820D1C4
:201000003A880700040880100EE501193A888B1C030040294400C01844008010C5FF7F1145
:2010200006F93F00051820D0440080040414C0041704E0D00318A0D0830000192E4B001145
:201040003A8887180302C01826020018260A801C063F00001705E0D03A8885103A88851087
:201060003A8885180502001045020010850200108303E0D006340000340800013A880D0090
:201080000412400104280821002E0001340800013A880D903A880B0004280821150380D847
:2010A00040340001340800013A880D900412400104280821150380D8002E00013408000197
:2010C0003A880B0004280821150380D880310001CC3F00111C2000218402400104E03F2148
:2010E00040D90101340800013A880B90042808210D03A0D080310001150380D8170380D8D2
:201100000C208010260300100B03A0D0440180100D03A0D00318E0D0170420D13A88C51891
:201120003A88C720170520D10302C0183A8885103A8885200502C0100B03E0D04502C014AE
:201140003AD2081885020011C502C010060300004320A0D0440080104520A0D00318A0D024
:20116000440080100518A0D006B13F004400C0001705A0D0069201000401000100380001B0
:20118000CC3F80101EB83D10051820D01704A0D00318E0D0830000112E8101193A88C71830
:2011A0003A88C7183A88C5100302C0101E1600184302C0101E1400188302C0101E120018DA
:2011C000C302801034080001150200D88503A0D0CC3F8010BAD00610BA910410150100D80E
:2011E000150000D8041AE0D1840080013A880B0004080821051AE0D0451AA0D00027020164
:20120000150380D8060300004320A0D0440080104520A0D00318A0D0440080100518A0D0ED
:2012200006DA3F004302C028430380293A9608188302C0284518A0D13A9406183AB0C6208C
:20124000030300293AB00819C302C028030240293A9206183AB0C620151FE0D04400000156
:2012600026050029265101288400C0001E88C028150F20D1068600001E02001884028000C9
:20128000051DA0D0CC3F80311E02003084078000051DA0D044008000C4020001340800024A
:2012A0004400C00134007E0234084001F4024005740100037402800534F8FD050510A0D097
:2012C00004440842040440033A881D20C4FF7F4A04454829040580023A880D384401C00253
:2012E0000405C0030406C007040D80043404C0048400000504986BAD04002863C4FFAFB5CD
:20130000C4FFFFBD0310A0D026573D10031DA0D026120011360A80208402C0001E57C010BD
:20132000150120D31500A0D5151320D33500402A3500C02D051D20D10510A0D10607000098
:201340002618C0138407C0001E4CC010C4FFBF0035008028051D20D0064400003700804045
:201360003408C000CC0480100444C8181E0340133500402A051DA0D20510A0D137008018ED
:20138000CC0480101E02C011051DA0D30510E0D137008018CC0480101EDA3F10051D20D019
:2013A00006D83F001512E0D71712A0D0362E8090170420D73A88B9E00302C0E032C0071802
:2013C000430280E02CC0FF1832C005103AD20510EC3F80103AB08618830280E032C005100E
:2013E0003AD405100CC0BF103AB08418C302C0E032C007183AD60618170020D73AB0841871
:201400001713E0D01511A0D03611C0E03A88C71C350080181713A0D0040180101513A0D03C
:20142000370080403408C000CC0280100444C81826FB3F1537008018CC0280101E02001061
:20144000051D20D0151360D537008018060200001705A0D04500C0121712A0D00401801075
:201460001512A0D006D03F00051DA0D21705A0D0051020D04500801106A23F001705A0D052
:20148000051D20D0051020D04500C012069D3F004500001106F43C004302C028151FE0D09F
:2014A00026050018171E20D1C4FFFF18264400198401C00006C20000340800018400800414
:2014C00004E0FF04150200D8150100D8150000D8C41AE0D1040180013A880B00041008213C
:2014E000051BA0D4C51AE0D4451B20D0851B20D000270201150380D81704A0D0051BA0D42C
:20150000C51AE0D403028014451B20D08400800026068090C40080002610809044008000C1
:201520001E278090851BA0D406010000851BA0D034080001150200D8150100D8150000D824
:20154000C41AE0D1040180013A880B000410082100270201150380D806190000C41AE0D421
:20156000340800013A880F98040180013A880B0004100821150200D8150100D8150000D86B
:20158000851BA0D4002702018400800134080001150200D81501C0DC150080D93A880F9853
:2015A0003A880B0004100821150380D8C51A20D0051BA0D400270201150380D80678000036
:2015C000851A20D044078004C41AE0D4C4000005831AA0D0360F80908400800134080001AE
:2015E000150200D81501C0DC150080D9C41AE0D13A880B0004100821C51A20D0051B20D55F
:2016000000270201150380D8031BA0D04C00801026040010051820D0C407800404E0FF0449
:2016200006060000831AA0D08407000144008010851AA0D08017020106E53F000318A0D0D3
:20164000361780900401C000051BE0D01704E0D034080001C41AE0D13A888518830280108D
:2016600004018001150200D8150100D8150000D83A880B0004100821C51AE0D4451B20D02D
:20168000851BA0D000270201150380D80318A0D0851A20D0440080100518A0D006E73F00F9
:2016A000851A20D0C41AA0D4C40000058400400534080001150200D8150180DC150040DDE7
:2016C000C41AE0D1840080013A880B0004100821C51A20D0051B20D500270201150380D8EE
:2016E000031BA0D0C41AE0D44C0080101E060010831AA0D08407000144008010851AA0D03E
:201700008017020106EA3F00171FE0D0C43F80001E218018851A20D044078004C400000599
:20172000831AA0D0360F80908400800134080001150200D81501C0DC150080D9C41AE0D167
:201740003A880B0004100821C51A20D0051B20D500270201150380D8031BA0D00C108010C7
:2017600026070010831AE0D0840780001E0A80184320A0D0440080104520A0D0060600008C
:20178000831AA0D08407000144008010851AA0D08017020106E23F00171FA0D0151EA0D0C3
:2017A0004320E0D01705A0D0260200184401C000060300004400C000060100008400C000ED
:2017C0004500C01006283C003A888B111700402935004021040180101EFBFF10170FE0D083
:2017E000440080001EC2BB180061000106C03B00CC3F00217AD004203A8809218C2A0021B2
:201800004C1580103AB08820BAD004203A8809213A880921CC0C80100C3300213AB0882065
:201820003AD104203A9108203AB004113A2800F8052220D13A2800F8440080000522A0D060
:20184000CCFFFF39261400383AD4043004FBFFDEC50380D9450380D83AD204301500C0D946
:20186000150200D8850380D8C4008000050380D8170580D80403C0D904018001150180D8ED
:201880001504C0DF002702013A8805001704C0DF0405C0DE3A2800F83A8805003A2800F8C3
:2018A00004F5FFDE150940DD150800DD1507C0DC150680DC150400DC150AC0DF150540DC05
:2018C0003A8825203A88272844C4090484010005440140058403C0D9440080013A880B987D
:2018E0003A880990150200D8150100D8150000D8850300DD00270201040380D8840040040D
:20190000150200D8150180D8150040DC8403C0D9440080013A880B983A880990C4FF3F840E
:20192000850340DD0027020126050080030380D8CC0080101EE77F143A880500060100000D
:2019400044008000170AC0DF170940DD170800DD1707C0DC170680DC170540DC170400DC68
:20196000040BC0DE3A2800F804F2FFDE150C00DF440000071507C0DC150DC0DF150BC0DD0C
:20198000150A80DD150940DD150800DD150680DC150540DC150400DC052220D7CCFFFF3CD0
:2019A0001E0200983A88050006410000CC3FC0391E3E00383A922030170E00DD3AD22698E1
:2019C0003A8825283A8823203A8839003AC821858400400544008005C400C005CCFFFF98D3
:2019E0003A8805A4263100183AD406103AD20410C50300D84503C0D8850380D8170F80D8EB
:201A0000261000100722A0D00503C0DD1E0600103A880B903A880988008A01013A883910C7
:201A2000CC3F801026DF3F1004408000150200D8150100DD150080D80403C0D9040180017E
:201A4000061400003A880B903A880988050340DD008A01013A883910CC3F80101E13001024
:201A60000403C0D904018001150280DD150100D8150000D83A880B903A8809880027020117
:201A80003A880FA0150200D8150100D8150000D8044080013A880B903A880988002702016C
:201AA000044000A5C4FFFF9C06CC3F003A8805E0170DC0DF170C00DF170BC0DD170A80DD25
:201AC000170940DD170800DD1707C0DC170680DC170540DC170400DC040EC0DE3A2800F861
:201AE00004F5FFDE150500DC3A8821301508C0DC840180003A882738150200D8150100D84B
:201B0000150000D80403C0D944008001CC3F0084150780DC150640DC150AC0DF150900DD7C
:201B20003A8823203A882528050380D800270201260D008004088000150200D8150100D8EB
:201B4000150000D80403C0D9040180013A880B903A880988050380D84503C0DC850300D81E
:201B6000C50300D80027020144018000B40B0004050380D844B031844400C004040400DD1D
:201B8000150200D8150100DD1500C0DC0403C0D9440080013A880B903A880988C4FF3F8417
:201BA00000270201260500800304C0D84C00C0183A8805181EF23F1806010000440080007C
:201BC000170AC0DF170900DD1708C0DC170780DC170640DC170500DC040BC0DE3A2800F8DB
:201BE000161B00203A880F00161600283A880D202E1A0029040880004400C0000601000078
:201C0000260D00103A884B29C4FFBF103A88C71836FB3F293A880500260700183A880500AC
:201C2000360240313AC84D313AB0C4107AD006187AD00A281EFA3F18260100383AC8850084
:201C40003A2800F83AC84B015C00C03906E73F003AC809014400C00106E33F004400C0001E
:201C600006EE3F00161700203A880F003A880520161200282E160029040880014400C000DE
:201C800006010000260A00303A884B29C4FFBF313A88C71836FB3F29260500187AD006180F
:201CA000360140113AC845117AD00A281EFB3F18260100383AC885003A2800F83AC84B01CA
:201CC00006EC3F003AC809014400C00106E73F004400C00006F13F003A880D202E15002901
:201CE00016140028040880004400C00006020000260E0010160500283A884B29C4FFBF10AB
:201D00003A88C71836FA3F29260800183A880500360240313AC84D313AB0C4107AD006182E
:201D20007AD00A281EFA3F183A2800F83A8805003A2800F84400C00006F43F003A88052019
:201D40002E12002916110028040880014400C00006020000260C0030160500283A884B2957
:201D6000C4FFBF313A88C71836FA3F29260600187AD00618360140113AC845117AD00A286F
:201D80001EFB3F183A2800F83A2800F84400C00006F73F003A880500260700204C00C0209F
:201DA0007AD00820260100183A8845113A884B291EFA3F203A2800F83A2800F804FDFFDE1B
:201DC0001502C0DF150140DC150000DCC403C0003A8805202E4580193AB00629CC00C018F3
:201DE0001E44001804FC7F343AD122880401C028040140233A9120880402002B0402C02220
:201E0000040500840403802A040340223A88212C3A8811283A880F20170000411700C01FD2
:201E20001700C06315000039170080531500C06F1500C05B1500804B0404C0180404C039FB
:201E4000040400420404406B040400630404C05A040480520404404A1EEF3F1C4400C08997
:201E60003A910E38CC030031C400C0023A88C7113A88CB292E2100593A8813183A881128EB
:201E80003A880F20170080420401404A04FFFF3915FFBF4A0401004236FAFF5904FF3F215F
:201EA000BAD00820CC008031440000213A8809213A8809213A8807193A880B292606003082
:201EC0003A888D190300C0294400C01844004029C5FFFF191EFBBF191702C0DF170140DC2C
:201EE000170000DC0403C0DE3A2800F83A88072006F23F003A88072006F13F003A880D20C2
:201F000006EE3F00CC00C0203A88052026440018C4FFFF31264000303A8813283A880D2004
:201F20003A88072006040000C4FF3F3A44008031263900383A880F404400C0180500403242
:201F4000CC00001A1EF83F40C40000012E2DC021CC3F00293A920C203AB008313A940C20BC
:201F60003AB08C21C40300012E18C02104FC3F3B3AD118600401001A0402C01A3A910860AC
:201F80000403801A3A881318040500213A880919150080491500804115008059150080511D
:201FA000040400420404404A0404C05A040480521EF73F41440000633A911860CC03C03902
:201FC000C40000013A88071B2E0EC0213A8813183A881138C40000011500804904FF3F421C
:201FE0000401404A36FC3F2204FF3F39BAD00820CC00C039440000213A8809213A88092190
:202000003A880719260500383A88CF19050040194400C0181EFDFF383A2800F83A2800F851
:202020003A8807203A880F3006C73F0004FCFFDE150300DF040300DF15FD3FE115FE7FE14B
:2020400015FFBFE117FEFFE017FDBFE0260C80180608000017FEBFE00401C01015FEFFE0D2
:2020600017FDFFE00401001915FD3FE11700C0181500C01017FEFFE017FFBFE01EF5BF18B6
:202080003A8801003A8837E0170000DF0401C0DE3A2800F804FEFFDE1501C0DF150000DF29
:2020A0003A8839D83408800104BA813134084001040740293404000104350E21C0020201C9
:2020C00034048001048C803134044001040840293404000104080021C00202013408800130
:2020E00004078031340840010400402934040001042E0E21C002020100FB0201C019030100
:202100003A8801003A8837E01701C0DF170000DF0402C0DE3A2800F804FDFFDE1502C0DFE4
:20212000150100DF040100DF3A880900C01D02013A88010040210201C00D030134040001EA
:20214000044F0C21005A03011723A0D01724E0D0172520D13A880D203A880B183A88091030
:202160008064000115FFBFE04400000180ED020117FF3FE1405B030104FDFFDE1502C0DFA9
:20218000150100DF040100DF15FF3FE117FF3FE140D402013A8837E01701C0DF170000DF5F
:2021A0000402C0DE3A2800F804FDFFDE1502C0DF150100DF040100DF15FF3FE1040860D143
:2021C00017FF3FE1800303013A8837E01701C0DF170000DF0402C0DE3A2800F804FDFFDEE0
:2021E0001502C0DF150100DF040100DF15FF3FE1004E0301440080003A7001103A88010088
:202200003A8837E01701C0DF170000DF0402C0DE3A2800F804FEFFDE1501C0DF150000DFB2
:202220003A8839D83A8801003A8801003A8801003A880100440080013A880B0034080001F0
:2022400004110021C05702013408000104070021801A02013A8801003A8801003A8837E0C9
:202260001701C0DF170000DF0402C0DE3A2800F804F4FFDE150B00DF040B00DF15FC3FE1C0
:2022800015FD7FE115FEBFE115FFFFE117FFFFE017FEBFE03A88851815F8BFE01702C0E0B8
:2022A000170180E03A88851815F9BFE0170180E015F5BFE017FEBFE015F6BFE04400800057
:2022C00015F7BFE017FCBFE0040580103A8809104400C00017FDBFE03A9884183500802033
:2022E000170380E08C0080101E05001017FCBFE0040380103A8807100400810035008018A1
:2023000017FCBFE03700801017FCBFE0040280103700801015FABFE017FABFE00C1080102B
:202320002602001017F7BFE01E03001017FABFE00C20801026F43F1017FABFE00C10801056
:20234000261E001017F7BFE00E1C800017F7BFE0C4FFBF1015F7BFE017FFFFE017F8BFE045
:202360002E0A801817FCBFE0040180103A88091017FFBFE04400C01015FFFFE0030080101C
:20238000CC3F801035008020060C000017F5BFE02608001017F5BFE0C4FFBF1015F5BFE0EC
:2023A00017FCBFE0040180103A8807003500C010060200000400BF0015F7BFE017FABFE0E2
:2023C0000C20801026D03F1017FCBFE03700801015FBBFE017F6BFE02604001017F6BFE042
:2023E000C4FFBF1015F6BFE006050000170280E04400C0101502C0E017FBFFE00500C0108C
:2024000017F7BFE04400801015F7BFE017F6BFE01EBD3F101702C0E017F9BFE01EBABF18A3
:2024200017FCBFE0040280103700801015FABFE017FABFE00C08801026F93F10170380E0A3
:202440004C0080101E04001017FCBFE0040380103A8807003500C010170180E03A8837E006
:20246000170000DF0401C0DE3A2800F804FAFFDE1505C0DF150400DF040400DF15FD3FE1C4
:2024800015FE7FE115FFBFE117FDBFE01700801015FCBFE017FCBFE0040AC01017FDBFE0C8
:2024A000170280103A880F1017FFBFE117FE7FE13A880918009802013A8837E01701C0DF59
:2024C000170000DF0402C0DE3A2800F804FAFFDE1505C0DF150400DF040400DF15FD3FE163
:2024E00015FE7FE115FFBFE117FDBFE01700801015FCBFE017FCBFE0040AC01017FDBFE068
:20250000170280103A880F1017FFBFE117FE7FE13A88091880B902013A8837E01701C0DF57
:20252000170000DF0402C0DE3A2800F804FCFFDE1503C0DF150200DF040200DF15FF3FE104
:2025400017FFBFE01700801015FEBFE017FEBFE0040AC01017FFBFE0170280103A880B10A0
:202560003A880918008F02013A8837E01701C0DF170000DF0402C0DE3A2800F804F8FFDE89
:202580001507C0DF150600DF040600DF15FD3FE115FE7FE115FFBFE117FDBFE017008010EA
:2025A00015FBBFE03A8805001E0400103A8805001E0200103A8805002602001044008000B9
:2025C000060100003A88050015FCBFE017FCBFE01E0F001017FDBFE00420C3001501C0100E
:2025E00017FBBFE00403801017FDFFE01701C0183500C010150000D817FDFFE13404800111
:20260000048A893117FF7FE117FE3FE1C01B03013A8801003A8837E01701C0DF170000DF9F
:202620000402C0DE3A2800F804FAFFDE1505C0DF150400DF040400DF15FF3FE117FFBFE040
:2026400015FCBFE017FCBFE01700801015FDBFE017FDBFE0040280103700801015FEBFE0FE
:2026600017FDBFE0040280103A8807003500C01017FDBFE0040280103700801017FEBFE07F
:202680000C2080102603001017FE7FE117FC3FE1406C020117FEBFE00C1081102603001054
:2026A00017FE7FE117FC3FE1807A02013A8801003A8837E01701C0DF170000DF0402C0DE88
:2026C0003A2800F804FCFFDE150300DF040300DF15FE3FE115FF7FE117FFBFE0CC0080102E
:2026E0001E2C001017FEBFE01703801017FEBFE01702801017FEBFE0170380104400801093
:20270000CC0F801015FDBFE017FEBFE01703801017FEFFE01700C0183700C0183A8809186A
:2027200017FEFFE03A888518040780100500001117FEBFE017FDFFE01503C01017FEBFE052
:202740001703801044008010CC0F801015FDBFE017FEBFE01702C01017FDBFE01E0E8018CB
:2027600017FEBFE01701C010C4DFBF003A70861817FEBFE01501C01017FEBFE0170080101E
:202780000403801017FEFFE01701C0183500C010060100003A8801003A8837E0170000DF20
:2027A0000401C0DE3A2800F804FBFFDE150400DF040400DF15FC3FE115FD7FE117FCBFE00C
:2027C0001704C01017FCBFE0170580102632801817FCBFE0170680108C008010260300100C
:2027E00017FDBFE00C008210261D001017FCBFE01704801017FCBFE01705801017FCBFE0C8
:20280000170080100401801017FCFFE01704C01817FC3FE13A88C7200417C0180300C018ED
:20282000CC3FC0183500C01017FCBFE0170480104400801017FCFFE015048018CC0FC01031
:2028400017FCBFE01504C01017FCBFE0170180101410C01017FCBFE01501C010060E0000E3
:2028600017FCBFE017008010040280103700801015FDBFE017FDBFE00C0082101E0600106C
:2028800017FCBFE01701C010C4EFBF003A70861817FCBFE01501C01017FCBFE01704C010AF
:2028A00017FCBFE0170580101E06801817FCBFE01701C010C4EFBE003A70861817FCBFE0F9
:2028C0001501C01017FCBFE0170080100403801017FCFFE01701C0183500C0103A88010078
:2028E0003A8837E0170000DF0401C0DE3A2800F804FDFFDE150200DF040200DF15FE3FE120
:2029000015FF7FE10605000017FFBFE00C0090102602001044FDBF000606000017FEBFE0DF
:202920001704C01017FEBFE0170580101EF6BF183A8805003A8837E0170000DF0401C0DE28
:202940003A2800F804FEFFDE1501C0DF150000DF3A8839D8170BA0D026030010170BA0D065
:202960003AE83E10060100000428A0D03A8837E01701C0DF170000DF0402C0DE3A2800F8C0
:2029800004F2FFDE150DC0DF150C00DF040C00DF15FC3FE115FD7FE115FEBFE115FFFFE16A
:2029A00005F43FE015F53FE017FFBFE00C0090103A000510CC3F801015F6BFE006130000C8
:2029C00017F5BFE04400801015F5BFE017FDBFE04400C01015FDFFE017FCFFE01702C01834
:2029E00017FC3FE13A88C7200407C0180300C0180500C01017FCBFE0170280104400801039
:202A0000CC0FC01017FCBFE01502C01017F5FFE017FEBFE00E05801817FCBFE01702C0108D
:202A200017FCBFE0170380101EE5BF1817F5BFE01E25001017FCBFE01702C01017FCBFE015
:202A4000170380101E20801817F6BFE01E070010409402013A880710C40280001500801872
:202A60004400800005F4BFE0061B00003A30050015F9BFE017F9FFE084FFBF003A70841846
:202A80003A70011017F9BFE015F8BFE017FCBFE0170180101420C01017FCBFE01501C0102A
:202AA00017FCBFE0170080100403801017FCFFE01701C0183500C01017F8BFE015FABFE0E3
:202AC00017FABFE03A70011017F5BFE01E02001017FEBFE01ECD3F103A30050015FBBFE0A4
:202AE00017FBFFE084FFBF003A7084183A70011017FBBFE015F8BFE017FCBFE017018010EB
:202B00001420C01017FCBFE01501C01017FCBFE0170080100403801017FCFFE01701C01847
:202B20003500C01017F8BFE015F7BFE017F7BFE03A70011003F4BFE02602001044FDBF0001
:202B40000601000017F5BFE03A8837E01701C0DF170000DF0402C0DE3A2800F804FEFFDE60
:202B60001501C0DF150000DF3A8839D8170BA0D026030010170BA0D03AE83E100601000005
:202B80000428A0D03A8837E01701C0DF170000DF0402C0DE3A2800F804F2FFDE150DC0DF81
:202BA000150C00DF040C00DF15FC3FE115FD7FE115FEBFE115FFFFE117FEBFE015F4BFE080
:202BC00017FFBFE00C00901015F5BFE0063C000017FCBFE01705801044008010CC0F80100C
:202BE00015F7BFE017FCBFE01704C01017F7BFE01E22801817F5BFE026050010C0B50201AA
:202C00003A880710C402800015008018062E00003A30050015F9BFE017F9FFE084FFBF0067
:202C20003A7084183A70011017F9BFE015F8BFE017FCBFE0170180101410C11017FCBFE037
:202C40001501C01017FCBFE0170080100403801017FCFFE01701C0183500C01017F8BFE009
:202C600015F6BFE017F6BFE03A70011017FCBFE01704C01017F7BFE026FCBF1817F4BFE056
:202C8000C4FFBF1015F4BFE017FCBFE01705C01017FDBFE04400001115FD3FE1030080108F
:202CA0003A88091017FCBFE03A88C510041780100500001117FCBFE017F7FFE01505C010A6
:202CC00017F4BFE01EC23F103A30050015FBBFE017FBFFE084FFBF003A7084183A700110C9
:202CE00017FBBFE015F8BFE017FCBFE0170180101410C11017FCBFE01501C01017FCBFE0DE
:202D0000170080100403801017FCFFE01701C0183500C01017F8BFE015FABFE017FABFE082
:202D20003A70011017FEFFE017F4BFE03AC885183A8837E01701C0DF170000DF0402C0DE71
:202D40003A2800F804FAFFDE1505C0DF150400DF040400DF15FF3FE14402800015FDBFE0FB
:202D6000F40340010490502917FD3FE140D901013A880B10B49800010480162180CD01018B
:202D80003A880B1034002001C4FF3F2180CD01013A880B1017FF3FE180CD010115FEBFE07B
:202DA00017FEBFE0262A001015FC3FE0061700003400A000C4FFBF10C4FFBF101EFE3F104F
:202DC000F40340010490502917FD3FE140D901013A880B10B49800010480162180CD01012B
:202DE0003A880B1034002001C4FF3F2180CD01013A88071017FFBFE03AC8C51015FFBFE017
:202E000017FCBFE04400801015FCBFE017FCFFE017FEBFE016E6BF18F403400104905029BE
:202E200017FD3FE140D901013A880B10B49800010480162180CD010117FF7FE13A880910BE
:202E400040D90101C4FFBF101EFE3F10060D0000F40340010490502917FD3FE140D90101B3
:202E60003A880B10B49800010480162180CD010117FF7FE13A88091040D90101C4FFBF1020
:202E800016FEBF003A8805003A8837E01701C0DF170000DF0402C0DE3A2800F804FEFFDE35
:202EA0001501C0DF150000DF3A8839D8170BA0D026030010170BA0D03AE83E1006010000C2
:202EC0000428A0D03A8837E01701C0DF170000DF0402C0DE3A2800F804FBFFDE1504C0DF3E
:202EE000150300DF040300DF15FF3FE117FFBFE0160800100403400117FF3FE140D9010145
:202F00003A88071034088000044280103A888518060100003A88050015FDBFE017FDBFE0B5
:202F20002619001017FDBFE017008010170480102606001017FDBFE01700801017048010FC
:202F400017FD3FE13AE83E10060100003A88050015FEBFE017FF3FE1C045030117FEBFE05A
:202F60000E070010C0E902013A88071017FEBFE03AC8850015008018C4FFBF000607000030
:202F80003A88050006050000C0E902013A8807104414800015008018C4FFBF003A8837E0FA
:202FA0001701C0DF170000DF0402C0DE3A2800F804FFFFDE150000DF3A8839D83A880100FC
:202FC0003A8837E0170000DF0401C0DE3A2800F804FCFFDE150300DF040300DF15FD3FE139
:202FE00015FE7FE115FFBFE117FFBFE03A8837E0170000DF0401C0DE3A2800F804FEFFDE4A
:203000001501C0DF150000DF3A8839D8170BA0D026030010170BA0D03AE83E100601000060
:203020000428A0D03A8837E01701C0DF170000DF0402C0DE3A2800F804FAFFDE1505C0DFDC
:20304000150400DF040400DF15FE3FE115FF7FE117FEBFE02603001017FEBFE017028010A0
:203060001E060010C0FF02013A880710840580001500801884FABF000613000017FEBFE0C1
:2030800017FFFFE015FCFFE015FDBFE017FDBFE017FCFFE01501C01017FCBFE01700C01076
:2030A00017FDBFE01500C01017FCBFE01700801017FDFFE01501C01017FCBFE017FDFFE0A1
:2030C0001500C0103A8805003A8837E01701C0DF170000DF0402C0DE3A2800F804FDFFDEE2
:2030E0001502C0DF150100DF040100DF34048000042D8E1015FFBFE00606000017FFBFE046
:20310000170080103AE83E1017FFBFE004FFBF1015FFBFE017FFFFE034048000042E8E10E1
:203120002EF6BF183A8801003A8837E01701C0DF170000DF0402C0DE3A2800F804FDFFDE6F
:203140001502C0DF150100DF040100DF34048000042D8E1015FFBFE00606000017FFBFE0E5
:20316000170080103AE83E1017FFBFE004FFBF1015FFBFE017FFFFE034048000042E8E1081
:203180002EF6BF183A8801003A8837E01701C0DF170000DF0402C0DE3A2800F804FFFFDE0D
:2031A000150000DF3A8839D83A8801003A8837E0170000DF0401C0DE3A2800F804F9FFDEDF
:2031C0001506C0DF150500DF040500DF15FC3FE115FD7FE115FEBFE115FFFFE1170280E091
:2031E000150080D817FFFFE117FEBFE117FD7FE117FC3FE1C03603013A8837E01701C0DF86
:20320000170000DF0402C0DE3A2800F804F9FFDE150600DF040600DF15FE3FE115FF7FE156
:2032200017FFBFE015FABFE03A30050015FBBFE017FBFFE084FFBF003A7084183A700110D9
:2032400017FBBFE015FCBFE04400C00017FABFE03A9884183A8807101726A0D03AB08418DF
:203260001526A0D01726A0D0FA70011017FCBFE015FDBFE017FDBFE03A7001103A880500E3
:203280003A8801003A8837E0170000DF0401C0DE3A2800F804F9FFDE150600DF040600DFE2
:2032A00015FE3FE115FF7FE117FFBFE015FABFE03A30050015FBBFE017FBFFE084FFBF00B3
:2032C0003A7084183A70011017FBBFE015FCBFE04400C00017FABFE03A9884183A3084007C
:2032E0003A8807101726A0D03A7084181526A0D01726A0D0FA70011017FCBFE015FDBFE0CC
:2033000017FDBFE03A7001103A8805003A8801003A8837E0170000DF0401C0DE3A2800F8E9
:2033200004FCFFDE150300DF040300DF15FE3FE115FF7FE1FA30050015FDBFE04400C00048
:2033400017FFBFE03A9884183A88071017FDBFE03A7084183AC00410CC3F80103A8837E0F6
:20336000170000DF0401C0DE3A2800F804F5FFDE150AC0DF150900DF040900DF15FC3FE1AC
:2033800015FD7FE115FEBFE115FFFFE184FABF0015F7BFE017FDBFE015F8BFE017F8BFE01F
:2033A000080880101E2700103A30050015FBBFE017FBFFE084FFBF003A7084183A700110C6
:2033C00017FBBFE015FABFE0340880000434821017F8FFE0FA9006183A88C51017FEFFE0E7
:2033E0001500C010340880000434821017F8FFE0FA9006183A88C5100401801017FFFFE0AB
:203400001500C01017FEBFE02605001017F8BFE03A880B1017FC3FE1C0200301060400002C
:2034200017F8BFE03A880B1017FC3FE14029030115F7BFE017FABFE015F9BFE017F9BFE0AA
:203440003A70011017F7BFE03A8837E01701C0DF170000DF0402C0DE3A2800F804FCFFDEA3
:203460001503C0DF150200DF150100DC040200DF15FE3FE117FEBFE0D00080101E11001042
:20348000340800040442008417FEBFE0040340013A88091040D901013A88858004028010D3
:2034A00015000010340800040442008417FEBFE0040340013A88091040D901013A88858024
:2034C000150000103A88010004FFFFE61702C0DF170100DF170000DC0403C0DE3A2800F87B
:2034E00004FFFFDE150000DF3A8839D8FA7001003A8801003A8837E0170000DF0401C0DE85
:203500003A2800F804FEFFDE150100DF040100DF15FF3FE117FFBFE084FEBF102804C01063
:203520001E1A0018BA90061034048000044F8D103A888518170080103A6800107C351000BA
:203540007C3510008C3510008C3510008C3510007C351000843510008C3510007C3510001B
:203560007C3510008C3510007C351000843510008C3510008C3510007C3510004400800008
:20358000060300003A880500060100003A8805003A8837E0170000DF0401C0DE3A2800F8C1
:2035A0003A880B203A880F003A880D003A880900C15E030104FEFFDE3A880B00150000DCF3
:2035C0001501C0DF3A882120407003013408800004B8811017000011170F80202601001051
:2035E0003AE83E103A8809804088030104FAFFDE150300DC3408000404B801841700C0809D
:20360000150440DC1505C0DF175280183A882320263700101701C010C4070001160EC02091
:203620004400001A1E2200888400C0183A88C7183A88C718150100123A88C7101500401997
:203640003A8805001705C0DF170440DC170300DC0406C0DE3A2800F8340080000400801071
:203660002626001004640001150040D9150180D91502C0D900000000170040D9170180D997
:203680001702C0D9261D0010170000811501001044000002175240223A8807001500401226
:2036A00015528020156200101563001026DE3F883A88C9183A8809213A88091115228021E6
:2036C00044008001176240123A98CC303AB09249156240121542C021840000011ED23F8989
:2036E000176300113AB08C211563801106CE3F00045380181552801806C63F00C4FFBF0011
:2037000006D03F0004F5FFDE150900DF150640DD150380DC150AC0DF1508C0DD150780DD24
:20372000150500DD1504C0DC150240DC150100DC150000D93A88392844008004C4FF7F0598
:203740003408800004B8811017000012175200450452C044261C00A0170180A0C4FFFF153E
:20376000160D00B8440000143A8821843A882184042040843A8863A43A8821A4261E00E0EC
:2037800017408080261C80E0C4FFFFBD04FF3F8404FF7F8C1EF97FBD340080000400801042
:2037A00026090010170180A01E300010170080A0263200103A8809A01500809800000000FD
:2037C0001700009D1EE43FA0170AC0DF170900DF1708C0DD170780DD170640DD170500DD2B
:2037E0001704C0DC170380DC170240DC170100DC040BC0DE3A2800F8170180A01700C080DD
:20380000C4FFBF102614C0151500008026DE3F183A98C895176280A0170180A53A708420C4
:20382000260B0010176380A03A7088201E0C002017004089170000D93AE83E18170180A091
:203840001EBFBF151700809826CF3F1506BC3F003AE83E1806F93F001501C0A506EB3F00DD
:20386000170000893AE83E1806F43F00170080A03A8827A03A88291006B63F003A8805007A
:2038800006FB3F0004FDFFDE150200DF040200DF15FF3FE13A88010017FFBFE015FEBFE0D1
:2038A00017FEBFE02602001070F02A0006010000B0F02A0006FF3F002F6465762F75617298
:2038C000740000002F6465762F6E756C6C00000043000000000000000000000000002000B9
:2038E000000000002C2510006C241000CC2410000000000000000000000000008020200007
:203900000000000000000000000000000000000000000000010000000000000000000000A6
:20392000000000000000000000000000000000000000000000000000000000000000000087
:20394000000000000000000000000000000000000000000000000000000000000000000067
:20396000000000000000000000000000000000000000000000000000000000000000000047
:20398000000000000000000000000000000000000000000000000000CC062000CC06200043
:2039A0000C002000000000000000000000000000D02F1000000000000000000000000000CC
:2039C000E00020000000000000000000E00020000000000000000000E000200000000000E7
:2039E0000000000000000000000000000000000000000000000000000000000000000000C7
:203A00000000000000000000000000000000000000000000000000000000000000000000A6
:203A2000000000000000000000000000000000000000000000000000000000000000000086
:203A4000000000000000000000000000000000000000000000000000000000000000000066
:203A6000000000000000000000000000000000000000000000000000000000000000000046
:203A8000000000000000000000000000000000000000000000000000000000000000000026
:203AA000000000000000000000000000000000000000000000000000000000000000000006
:203AC0000000000000000000000000000000000000000000000000000000000000000000E6
:203AE0000000000000000000000000000000000000000000000000000000000000000000C6
:203B00000000000000000000000000000000000000000000000000000000000000000000A5
:203B2000000000000000000000000000000000000000000000000000000000000000000085
:203B40000000000074052000DC052000440620000000000000000000000000000000000061
:203B600000000000000000000000000000000000000000001800200000000000000000000D
:203B8000000000000000000000000000000000000000000000000000000000000000000025
:203BA000000000000000000000000000000000000000000000000000000000000000000005
:203BC0000000000000000000000000000000000000000000000000000000000000000000E5
:203BE0000000000001000000000000000E33CDAB34126DE6ECDE05000B0000000000000098
:203C00000000000000000000000000000000000000000000000000000000000000000000A4
:203C2000000000000000000000000000000000000000000000000000000000000000000084
:203C4000000000000000000000000000000000000000000000000000000000000000000064
:203C6000000000000000000000000000000000000000000000000000000000000000000044
:203C8000000000000000000000000000000000000000000000000000000000000000000024
:203CA000000000000000000000000000000000000000000000000000000000000000000004
:203CC0000000000000000000000000000000000000000000000000000000000000000000E4
:203CE0000000000000000000000000000000000000000000000000000000000000000000C4
:203D00000000000000000000000000000000000000000000000000000000000000000000A3
:203D2000000000000000000000000000000000000000000000000000000000000000000083
:203D4000000000000000000000000000000000000000000000000000000000000000000063
:203D6000000000000000000000000000000000000000000000000000000000000000000043
:203D8000000000000000000000000000000000000000000000000000000000000000000023
:203DA000000000000000000000000000000000000000000000000000000000000000000003
:203DC0000000000000000000000000000000000000000000000000000000000000000000E3
:203DE0000000000000000000000000000000000000000000000000000000000000000000C3
:203E00000000000000000000000000000000000000000000000000000000000000000000A2
:203E2000000000000000000000000000000000000000000000000000000000000000000082
:203E4000000000000000000000000000000000000000000000000000000000000000000062
:203E6000000000000000000000000000000000000000000000000000000000000000000042
:203E8000000000000000000000000000000000000000000000000000000000000000000022
:203EA000000000000000000000000000000000000000000000000000000000000000000002
:203EC0000000000000000000000000000000000000000000000000000000000000000000E2
:203EE0000000000000000000000000000000000000000000000000000000000000000000C2
:203F00000000000000000000000000000000000000000000000000000000000000000000A1
:203F2000000000000000000000000000000000000000000000000000000000000000000081
:203F4000000000000000000000000000000000000000000000000000000000000000000061
:203F600000000000FFBF080000A00400900720002C01B4009008200050072000C406200026
:203F8000C4062000E0002000E0002000FFFFFFFF00000000FFFFFFFF8802200088022000EB
:203FA000000000000000000000000000000000000000000000000000000000000000000001
:203FC0000000000000000000000000000000000000000000000000000000000000000000E1
:203FE0000000000000000000000000000000000000000000000000000000000000000000C1
:204000000000000000000000000000000000000000000000000000000000000000000000A0
:0200000280007C
:00000001FF
