:020000020000FC
:2000000034044000148B40083A6800080000000000000000000000000000000000000000D7
:2000200004EDFFDE1500C0DF150240D8150380D81504C0D8150500D9150640D9150780D952
:200040001508C0D97A300B00150900DA150A40DA150B80DA150CC0DA150D00DB150E40DB94
:20006000150F80DB1510C0DB151140D904FFFFEB1512C0DB3A3109004C00802826030010B2
:2000800026020020C00F000106070000151240DF17FFBFE804FF3FE9C01C00011E02001000
:2000A00004FFFFEB1512C0DB171140D9171240DF1700C0DF7A700128170240D8170380D89C
:2000C0001704C0D8170500D9170640D9170780D91708C0D9170900DA170A40DA170B80DA62
:2000E000170CC0DA170D00DB170E40DB170F80DB1710C0DB0413C0DE3A0880EF04F9FFDE81
:200100001506C0DF150500DF040500DF3A8801003A31050015FEBFE017FEBFE015FBBFE0FC
:2001200015FD3FE04400800015FCBFE017FBFFE017FCBFE03A70841826140010340880002B
:20014000047F821017FDFFE0FA9006183A88C5101700C01034088000047F821017FD3FE16C
:20016000FA900820040100213A880511170080103A8809103AE83E183A8801003A310500A2
:2001800015FFBFE017FFBFE00607000017FCBFE03A88851015FCBFE017FDBFE044008010AA
:2001A00015FDBFE006E13F0015FBBFE017FBBFE01EDB3F103A8801003A8837E01701C0DF6D
:2001C000170000DF0402C0DE3A2800F804FBFFDE1504C0DF150300DF040300DF15FF3FE186
:2001E000C4FFBF0015FDBFE015FE3FE0172BA0D026070010172BA0D017FDFFE03A88091823
:2002000017FF7FE117FEBFE13AE83E10060200003AA03D003A8805003A8837E01701C0DFCD
:20022000170000DF0402C0DE3A2800F83408C0061400C4DE3408800614F2A1D63408800017
:20024000140582103408C00014BFC2182603C010150000100401801036FDFF10400F020103
:200260004017020106FF3F0004FDFFDE150140DC150000DC3A8823283A8821204401400149
:200280003A8809301502C0DFC0E001013A880B103A880988C0DF0101C4FFBF100402C08062
:2002A000350000184400000135040081CC3F0011350000813AD20410CC3F8010350180802F
:2002C00004208000350080181702C0DF170140DC170000DC0403C0DE3A2800F84C008031D2
:2002E0003A884B293A888B2935034021040400210424800035008020370080208C00801020
:200300001EFD3F1037008020FAD104104C0080103A2800F80404C02026020028041A8000B1
:20032000060100000408800035008018370080188C0080101EFD3F10370380203A2800F8D4
:20034000CC3F40293503402104040021260200300414800006010000040480003500802013
:20036000370080208C0080101EFD3F1037008020FAD104104C0080103A2800F804FEFFDE55
:20038000150000DC170420D4CC3F4021040E00011501C0DFC0DF01018300C080CC3F80102A
:2003A0002E05C0101705A0D00401C0004500C01044008000060100003A8805001701C0DF8B
:2003C000170000DC0402C0DE3A2800F8CC3F4029BAD00A28340880013A8807000441883178
:2003E000CC3F80182E0740113700C0313A88C5183A8885103A8885201500C0114400C0184D
:2004000006F73F003A2800F834088000CC3F002104388810350000113A2800F804FCFFDE0D
:20042000150000DC3408000404280884150280DC041280043A8809803A880B903A880D004F
:200440001503C0DF150140DCC02D0001440040043A8809803A880B883A880D000034000199
:200460003A8809803A880D8804014001003400013A8809803A880B903A880D00C02D0001FA
:200480003A880980840040013A880D00003400013A880980440B40013A880D000034000169
:2004A0003A8809803A880D883A880B00003400013A8809803A880B903A880D00C02D000133
:2004C0003A880980C40040013A880D00003400013A880980C40D40013A880D000034000167
:2004E0003A8809803A880B003A880D881703C0DF170280DC170140DC170000DC0404C0DE92
:200500000134000104FCFFDE150000DC3408000404280884150280DC041480043A88098085
:200520003A880B903A880D001503C0DF150140DCC02D00013A8809803A880B003A880D00D1
:20054000003400013A8809803A880B003A880D0044004004003400013A880D883A88098020
:200560003A880B90C02D00013A8809803A880B88403100013A8809803A880B903A880D00A7
:20058000C02D00013A8809803A880B003A880D00003400013A8809803A880B883A880D00E2
:2005A000003400013A8809803A880D8884164001003400013A8809803A880B903A880D00DD
:2005C000C02D00013A8809803A880B003A880D00003400013A8809803A880B883A880D00A2
:2005E000003400013A8809803A880B903A880D88C02D00013A8809803A880B881703C0DF80
:20060000170280DC170140DC170000DC0404C0DE413100013408800004318810C400C00018
:200620003500C0103408000104330821440080003700C02026FEBF183408800004308810BA
:200640004400C0003500C0103A2800F804FCFFDE150000DC3408000404280884150140DC3F
:2006600004144004150280DC3A880B883A8825203A880D003A8809801503C0DFC02D000190
:200680003A8809803A880B003A880D00003400013A880980CC3F40913A880D000034000113
:2006A000440080043A880D903A8809803A880B88C02D00013A8809803A880B0040310001FB
:2006C0003A8809803A880B903A88231040310001CC3F80103A920410CC3F408C3AB0441477
:2006E0001703C0DF170280DC170140DC170000DC0404C0DE3A2800F804F2FFDE150540DC9C
:2007000034084004150DC0DF150C00DF150BC0DD150A80DD150940DD150800DD1507C0DC72
:20072000150680DC150400DC0418488C8401800035008088C401800035008088340800015C
:20074000B4984001B4008001042808210480562904A8A1318026000104040001C06400012C
:20076000CCFF3F11D4FFFF001E01C02004EDBF008503A0D08303A0D0041E20D4340800019C
:20078000CC3FC010BA910410BAD006183A880F8045008080040808213A880B0084008001DA
:2007A000150000D8150100D8150200D8051EE0D0C41E20D4002D0201150380D8840080849E
:2007C000C04100013408C0000442C81837008018150380D8170380D84C0080101EF93F1002
:2007E00034080001046F022104104001C03C000134080001041F02213A880B0004108001EF
:20080000C0F60101170460D1452420D01705A0D00300C028441400010500C0108300C0286B
:200820008500C010C300C028C500C010C400C0004500C0100300C028264A00193616C020EA
:200840008408000126990019360DC02004080001265C00193675C0201E1404188401C0004A
:200860000502C0104404C0004502C0104400C0008502C010C50200100503C010060C040062
:20088000C4130001261800193633C020040B000126370319060504008415000126C60019A9
:2008A0003606C020C414000126940219363100194415000126A0001906FC03008418000113
:2008C000260D02193603C02044180001265F021906F603000423000126DD00194423000109
:2008E0002693011906F1030004E0BF00C51EA0D004F1BF0045008080430280284400C00447
:20090000340800018500808003028028041008213A880B98C5008080150000D8150100D826
:20092000150200D804018001C41EE0D1002D0201150380D81705A0D04500C01434088001AD
:20094000340800013A880500041F8231044008210410C00006D80300C51E20D004F1BF0014
:200960000606000004E0BF00C51EA0D084F1BF0006E03F00C51E20D084F0BF0045008080D1
:20098000840080014400C00434080001150080D9150180DC150200D8041008213A880B989C
:2009A000C41EE0D1002D0201150380D8C300C0801705A0D00502C0108300C0804502C010C4
:2009C00006DD3F00030280284400C0002610C01026120010840000011E120011840180002B
:2009E000350080883A8801003A8801003A8801003A8801003A8801003A8801003A88010065
:200A00003A8801003A8801003A88010006030000840180003500808806090200C4018000EC
:200A200006FC3F004524E0D00605020004010001C0370001CC3F80101EC03F10051C20D078
:200A400004E0FF041704E0D1031CA0D08300C0382EFBC1103A8885103A8885103A888738B0
:200A60000402C01803000019040280103A880B003AB0C8240500001934080001150000D8FB
:200A8000150100D8150200D804100821040180013A888F38002D0201150380D8031CA0D0FE
:200AA00044008010051CA0D006E63F0004010001C0370001CC3F80101EA03F10051C20D0EF
:200AC0008400C0041704E0D1031CA0D0170560D18300C0382E5BC0103A8885103A8887387A
:200AE0000402C0180300001984008001CC1F0021050000190402C0103A888510840280108A
:200B00003A888528340800011500C0DC150180D8150200D8041008213A880B003A88CF3848
:200B2000002D0201150380D8031CA0D044008010051CA0D006E33F0004010001C0370001FB
:200B4000CC3F80101E7D3F10051C20D004E0FF041704E0D1031CA0D08300C0382EB8C1108B
:200B60003A8885103A8885103A8887380402C0180300001904028010440040013AB0C8245B
:200B80000500001934080001150000D8150100D8150200D804100821040180013A888F38E4
:200BA000002D0201150380D8031CA0D044008010051CA0D006E63F0004010001C037000178
:200BC000CC3F80101E5D3F10051C20D08400C0041704E0D1031CA0D0170560D18300C03834
:200BE0002E18C0103A8885103A8887380402C0180300001984008001CC1F002105000019DE
:200C00000402C0103A888510840280103A888528340800011500C0DC150180D8150200D8D7
:200C200004100821440040013A88CF38002D0201150380D8031CA0D044008010051CA0D095
:200C400006E33F004400800045008028063B3F004302C0284303C02C3A9608188302C0287F
:200C6000451CE0D43A9406183AB0C620030300293AB00819C302C0283A9206183AB0C62002
:200C8000830400291523E0D01E040320C3040029C40080011E3D80210302C0281EFF021822
:200CA0003408000104280821041440013A880D00C02D00014524A0D01704A0D034080001EB
:200CC00004280821030440113A880D003A882700003400014324E0D03408000104280821D1
:200CE0003A88C5104524A0D01704A0D03A880D0043044011003400014324E0D03A88C510AF
:200D00004524A0D0431CE0D01704A0D0C4FFFF180E0DC0983A88C5140308401134080001DF
:200D2000042808213A880D00003400014324E0D004E204014400C09C3A88C5104524A0D048
:200D4000001D020106EF3F003A88E714030840994400000534080001042808213A880DA054
:200D6000003400014324E0D004E204013A88C5104524A0D0001D02014324E0D01705A0D009
:200D80001EC602184500001506EC3E00440080011EC2822103028029840000011EBF023140
:200DA0001E040018151B20D0151A20D0151820D0152520D0171A60D5044080003AC84515ED
:200DC0001519A0D00E158000CC3FC09C0E0280981518E0D4060100001518A0D0171820D59A
:200DE00034080001042F02213A880DA03A884925040840293A8829AD40E30101151A20D56B
:200E0000044080001E0200980E010005151AA0D0171AE0D03AC8C5101519A0D0171AA0D0AC
:200E2000C43FC0000E288018171BE0D13A70C4381E0E00100E0100383A88CF383AD20F38F9
:200E400034080001040008213A880B0044008001CC3FC03900BE0101CC3F801026030010FE
:200E60004324A0D0440080104524A0D04324A0D01E0F001034088000171BA0D1042F8210B6
:200E800034080001150080D8150100D8040008213A880B000440C00180A50101CC3F8010F9
:200EA000260300104324A0D0440080104524A0D0171BA0D0151A20D044008010151BA0D040
:200EC000044080001519A0D0431C20D51718E0D40E0F009D171A60D5170460D134080001D0
:200EE000042F02213AC8E7A43A884925040840293A880DA01518E0D440E301013A88E7ACA0
:200F000004408000151AE0D43AC8E7141519E0D41725A0D03440C0003A888DA01525A0D1D1
:200F20001705A0D0365D82194324E0D0065A02004302C0283A9608188302C0283A94061808
:200F40003AB0C620030300293AB00819C302C0283A9206183AB0C6201523E0D04303C0280A
:200F6000451CE0D08304C0281E4C0218C304C028C40000011E3B00190302C0281E4702181B
:200F80003408000104280821041440013A880D00C02D00014524A0D01704A0D03408000108
:200FA00004280821030440113A880D003A882700003400014324E0D03408000104280821EE
:200FC0003A88C5104524A0D01704A0D03A880D0043044011003400014324E0D03408000126
:200FE000042808213A88C51004144001440080014524A0D0C02D00014324E0D03A88C51072
:201000004524A0D0431CA0D0170520D5C4FFBF100E08809834080001042808213A880B00F8
:201020003A88E9A440310001050880A04400C09C06F43F00440040053408000104280821CE
:201040003A880BA8403100014324E0D03A88E7A4050880981705A0D01E10021845004015B2
:2010600006363E00440000011E0C0219830380283408C004042FC29C3A960C10C303802853
:2010800034080001040008213A9404100440C0013AB08430430480293AB08C11030480283B
:2010A0001500C0DC3A880B003A9204103AB08C30151BA0D180920101CC3F801026030010A3
:2010C0004324A0D0440080104524A0D01705A0D0431C20D13A880700040880100EEC011937
:2010E0003A88CB1C030040294400C01844008010C5FF7F1106F93F00051C20D04400C00440
:20110000041400051704E0D0031CA0D0830000192E4B00113A8887180302C01826020018B4
:20112000260AC01C063F00001705E0D03A8885103A8885103A888518050200104502001017
:20114000850200108303E0D0063400003408000104280821041240013A880D00C02D0001E2
:2011600034080001042808213A880B003A880D98150380D800340001340800013A880D9860
:201180000428082104124001150380D8C02D000134080001042808213A880B00150380D876
:2011A00040310001CC3F00111C20002104E03F2184024001C0E00101340800010428082105
:2011C0003A880B980D03A0D040310001150380D8170380D80C208010260300100B03A0D063
:2011E000440180100D03A0D0031CE0D0170420D13A88C5183A88C720170520D10302C0188D
:201200003A8885103A8885200502C0100B03E0D0450200153AD2081885020011C502C010C4
:20122000060300004324A0D0440080104524A0D0031CA0D044008010051CA0D006B13F0037
:201240004400C0001705A0D00699010004010001C0370001CC3F80101EB83D10051C20D091
:201260001704A0D0031CE0D0830000112E8801193A88C7183A88C7183A88C5100302C01002
:201280001E1700184302C0101E1500188302C0101E130018C3028010041EE0D73408000198
:2012A0008503A0D0CC3F8010BAD00610BA910410040808213A880B00450080F8150000D8F0
:2012C000150100D8150200D8840080013A880FF8051EE0D0002D0201150380D806030000E7
:2012E0004324A0D0440080104524A0D0031CA0D044008010051CA0D006D93F004302C0282B
:20130000430380293A9608188302C028451CA0D13A9406183AB0C620030300293AB00819B9
:20132000C302C028030240293A9206183AB0C6201523E0D0440000012605002926570128B1
:201340008400C0001E88C028151320D1068600001E020018840280000521A0D0CC3F803186
:201360001E020030840780000521A0D044008000C4020001340800024400C00134007E02FA
:2013800034084001F4028005740100037402C00534F83D070514A0D0044408423A881B201A
:2013A000C4FF7F4A04454829040580023A880D384401C002040580030406C003040DC00420
:2013C00034040005840040050498ABB504002863C4FFEFBDC4FF3FE70314A0D026573D10D3
:2013E0000321A0D026120011360A80208402C0001E58C010150120D31500E0D5151720D3B2
:201400003500402A3500002F052120D10514A0D106070000261980138407C0001E4DC010C3
:20142000C4FFBF0035008028052120D006450000370080403408C000CC0480100404C007CA
:201440000444C8181E03C0173500402A0521A0D20514A0D137008018CC0480101E02C0118B
:20146000052160D30514E0D137008018CC0480101ED93F10052120D006D73F001516E0D3C4
:201480001716A0D0362E80981704E0D73A88BFF80302C0F832C00718430280F82CC0FF185A
:2014A00032C005103AD20510EC3F80103AB08618830280F832C005103AD405100CC0BF10FF
:2014C0003AB08418C302C0F832C007183AD606181700E0D73AB084181717E0D01515A0D0FE
:2014E0003611C0F83A88071D350080181717A0D0040180101517A0D0370080403408C00078
:20150000CC0280100444C81826FB7F1537008018CC0280101E020010052120D01517A0D57C
:2015200037008018060200001705A0D04500C0121716A0D0040180101516A0D006D03F004F
:201540000521A0D21705A0D0051420D04500801106A13F001705A0D0052120D0051420D0F7
:201560004500C012069C3F004500001106F33C004302C0281523E0D026050018172220D166
:20158000C4FFFF18264CC0208401C00006C800008400C0044500C08485000080C5000080F1
:2015A0003408000104E03F05150000D8150100D8150200D8041008213A880B00040180016C
:2015C000C41EE0D1C51E20D5002D0201150380D81704A0D04500C084C51E20D50302C0143B
:2015E0008500008084008000C41E20D5260E8098C400800026188098440080001E2E8098FD
:20160000C500C0A434080001150000D8150100D8150200D8041008213A880B00040180010A
:201620003A880FA006090000C50080A034080001150000D8150100D8150200D80410082101
:201640003A880B0004018001C41EE0D1002D0201150380D806180000C500C0A43408000180
:20166000041008213A880B0004018001C41EE0D1150000D8150100D8150200D8002D02014D
:20168000840080014500C0A434080001150080D9150100DD150200D8041008213A880B0005
:2016A000C41EE0D1150380D8C51E20D0002D0201150380D806760000851E20D04407000555
:2016C000C4004005831EA0D0C41EE0D4360F80A0450040858400800134080001150080D93B
:2016E000150100DC150200D8041008213A880B003A880F98C51E20D0002D0201150380D823
:20170000430080804C00801026040010051C20D0C407000504E07F0506060000831EA0D00A
:201720008407000144008010851EA0D0001D020106E43F00031CA0D0361780A00401C0002C
:201740004500C0981704E0D085000098340800013A88851883028010041008213A880B0049
:20176000C5008098150000D8150100D8150200D804018001C41EE0D1C51E60D5002D020161
:20178000150380D8031CA0D0851E20D044008010051CA0D006E73F00851E20D0C4000005CA
:2017A000840040054500009D34080001150040DD1501C0DC150200D8041008213A880B0064
:2017C00084008001C41EE0D1C51E20D0002D0201150380D8430080984C0080101E06001093
:2017E000831EA0D08407000144008010851EA0D0001D020106EB3F001723E0D0C43F8000A8
:201800001E218018851E20D044070005C4004005831EA0D0360F80A04500409D8400800168
:2018200034080001150080D91501C0DC150200D8041008213A880B00C41EE0D1C51E20D0EC
:20184000002D0201150380D8430080980C10801026070010831EE0D0840780001E0A801888
:201860004324A0D0440080104524A0D006060000831EA0D08407000144008010851EA0D054
:20188000001D020106E23F001723A0D01522A0D04324E0D01705A0D0260200184401C000C8
:2018A000060300004400C000060100008400C0004500C01006213C003A888B11170040297A
:2018C00035004021040180101EFBFF101713E0D0440080001EBBBB184061000106B93B00CF
:2018E000CC3F00213A8805217AD008208C2A80104C1500213AB008113A880521BAD00820FD
:201900003A888510CC0CC0200C3300113AB0C8203A9104203AD108203AB004113A2800F81B
:20192000052620D13A2800F8440080000526A0D0CCFFFF39261400383AD4043004FBFFDE3F
:20194000C50380D9450380D83AD204301500C0D9150200D8850380D8C4008000050380D865
:20196000170580D8040180010403C0D9150180D81504C0DF002D02013A8805001704C0DFF6
:201980000405C0DE3A2800F83A8805003A2800F804F5FFDE150940DD150800DD1507C0DC62
:2019A000150680DC150400DC150AC0DF150540DC3A8825203A88272844C409048401000510
:2019C000440140053A8809903A880B98440080018403C0D9150000D8150100D8150200D80E
:2019E000850300DD002D0201040380D884004004150040DC150180D8150200D83A88099042
:201A00003A880B98440080018403C0D9C4FF3F84850340DD002D020126050080030380D818
:201A2000CC0080101EE77F143A8805000601000044008000170AC0DF170940DD170800DD27
:201A40001707C0DC170680DC170540DC170400DC040BC0DE3A2800F804F2FFDE4400C00046
:201A6000150400DC150DC0DF150C00DF150BC0DD150A80DD150940DD150800DD1507C0DC8A
:201A8000150680DC150540DC0526E0D0CCFF3F3C1E0200803A88050006450000CC3FC039C2
:201AA0001E4000383A920C30170E40DC3AD220803A8827203A8829283A882B003AC86534F7
:201AC000840080054400C005C4000007CCFF3F813A88858C263500203AD408103AD204100A
:201AE000C50300D8450300D9850380D8170F80D8261200100726A0D0050300DF1E060010C7
:201B00003A8809983A880BA0009901013A882B10CC3F801026DF3F1004408000150080D83D
:201B2000150140DC150200D83A8809983A880BA0040180010403C0D9061600003A8809980F
:201B40003A880BA0050380DD009901013A882B10CC3F80101E1500103A8809983A880BA06D
:201B6000040180010403C0D9150000D8150100D81502C0DD002D02013A880998150000D830
:201B8000150100D8150200D83A880BA0044080013A880F88002D02010440408CC4FF3F8417
:201BA00006CA3F003A880518060100003A8805A8170DC0DF170C00DF170BC0DD170A80DDBF
:201BC000170940DD170800DD1707C0DC170680DC170540DC170400DC040EC0DE3A2800F860
:201BE00004F5FFDE150500DC3A8821301508C0DC840180003A882738150000D8150100D84C
:201C0000150200D8440080010403C0D9CC3F0084150780DC150640DC150AC0DF150900DD79
:201C20003A8823203A882528050380D8002D0201260D008004088000150000D8150100D8E6
:201C4000150200D83A8809883A880B90040180010403C0D9050380D84503C0DC850300D81B
:201C6000C50300D8002D020144018000B40B0004050380D844B031844400C004040400DD16
:201C80001500C0DC150100DD150200D83A8809883A880B90440080010403C0D9C4FF3F8416
:201CA000002D0201260500800304C0D84C00C0183A8805181EF23F18060100004400800075
:201CC000170AC0DF170900DD1708C0DC170780DC170640DC170500DC040BC0DE3A2800F8DA
:201CE0002E18002916170028040880004400C0000602000026110010160500283A884B29C8
:201D0000C4FFBF103A88C71836FA3F29260B00183A880500360240213AC849213AB0C41025
:201D20007AD006187AD00A281EFA3F181E0100303A2800F83A8805203A2800F83A8805009F
:201D400006FA3F004400C00006F13F0004FEFFDE1501C0DF150000DC160B00203A88210061
:201D6000160C00283A880D0000CE01013AC807043AF084183A8805141701C0DF170000DC22
:201D80000402C0DE3A2800F83AC80901440000040EF43F283AC84B015C00008406F13F0024
:201DA00004FDFFDE1502C0DF150140DC150000DC160C00203A8823003A882100160D002817
:201DC0004400800100CE01013AF004143A8885881702C0DF170140DC170000DC0403C0DED9
:201DE0003A2800F83AC8090144004004C4FF3F040EF33F283AC84B0106F13F003A880D0034
:201E000001CE01014400800101CE01013A880500260700204C00C0207AD00820260100186A
:201E20003A8845113A884B291EFA3F203A2800F83A2800F804FFFFDE150000DCC403C000D1
:201E40003A8805202E4380193AB04621CC00C0181E42001804FC3F343AD120800401C02819
:201E6000040140233A911E800402002B0402C0220405C07B0403802A040340223A88DF2B4E
:201E80003A8811283A880F20170000410404C0390404C01815FC3F3917FCBF1B0404406BF4
:201EA0000404C05A15FCBF6B170080630404404A0404004215FCBF5B17008053040400636F
:201EC0000404805215FCBF4B1EEFFF1B4400C0813A910E38CC030031C400C0023A88C71130
:201EE0003A88CB292E1F00593A8813183A8811283A880F20170080420401404A04FFFF390A
:201F000015FFBF4A0401004236FAFF5904FF3F21BAD00820CC008031440000213A880921F2
:201F20003A8809213A8807193A880B29260600303A888D190300C0294400C0184400402964
:201F4000C5FFFF191EFBBF19170000DC0401C0DE3A2800F83A88072006F43F003A880720B9
:201F600006F33F003A880D2006F03F00CC00C0203A88052026430018C4FFFF312640003068
:201F80003A8813283A880D203A88072006040000C4FF3F3A44008031263900383A880F4089
:201FA0004400C01805004032CC00001A1EF83F40C40000012E2DC021CC3F80293A9208305A
:201FC0003AB08C213A9408303AB08C21C40300012E18C02104FC3F3B3AD118600401001AC2
:201FE0000402C01A3A9108600403801A3A881318040500213A88091915008049150080417E
:202000001500805915008051040400420404404A0404C05A040480521EF73F4144000063D8
:202020003A911860CC03C039C40000013A88071B2E0EC0213A8813183A881138C400000112
:202040001500804904FF3F420401404A36FC3F2204FF3F39BAD00820CC00C03944000021A5
:202060003A8809213A8809213A880719260400383A88CF19050040194400C0181EFDFF19ED
:202080003A2800F83A8807203A880F3006C83F0004FCFFDE150300DF040300DF15FD3FE103
:2020A00015FE7FE115FFBFE117FEFFE017FDBFE0260C80180608000017FEBFE00401C010F1
:2020C00015FEFFE017FDFFE00401001915FD3FE11700C0181500C01017FEFFE017FFBFE04E
:2020E0001EF5BF183A8837E0170000DF0401C0DE3A2800F804FEFFDE1501C0DF150000DFA2
:202100003A8839D83404000104DB122134084001040E402934088001040582310009020124
:202120003404000104080021340440010408402934048001048B803100090201340400010D
:2021400004CD1221340840010400402934088001040E80310009020140F90301002404019F
:202160003A8837E01701C0DF170000DF0402C0DE3A2800F804FDFFDE1502C0DF150100DF52
:20218000040100DF3A880900802302013A880100C0260201000D040134040001044B102173
:2021A000806F0401172720D11728E0D01729A0D03A880B183A880D10806F000115FFBFE0F6
:2021C0004400000180E9030117FF3FE1C070040104FDFFDE1502C0DF150100DF040100DF75
:2021E00015FF3FE117FF3FE100CF03013A8837E01701C0DF170000DF0402C0DE3A2800F81E
:2022000004FDFFDE1502C0DF150100DF040100DF15FF3FE117FF3FE13408400104FC412900
:20222000C00204013A8837E01701C0DF170000DF0402C0DE3A2800F804FDFFDE1502C0DFBF
:20224000150100DF040100DF15FF3FE1C05A0401440080003A7001103A8837E01701C0DF43
:20226000170000DF0402C0DE3A2800F804FEFFDE1501C0DF150000DF3A8839D83A8801004C
:202280003A8801003A8801003A88010034080001041800213A880B0044008001405E020148
:2022A00034080001040E00210020020134080001043F0021806603013A8801003A8837E064
:2022C0001701C0DF170000DF0402C0DE3A2800F804F4FFDE150B00DF040B00DF15FC3FE160
:2022E00015FD7FE115FEBFE115FFFFE117FFFFE017FEBFE03A88851815F8BFE01702C0E058
:20230000170180E03A88851815F9BFE0170180E015F5BFE017FEBFE015F6BFE044008000F6
:2023200015F7BFE017FCBFE0040580103A88091017FDBFE04400C0003A98841835008020D2
:20234000170380E08C0080101E05001017FCBFE0040380103A880710040081003500801840
:2023600017FCBFE03700801017FCBFE0040280103700801015FABFE017FABFE00C108010CB
:202380002602001017F7BFE01E03001017FABFE00C20801026F43F1017FABFE00C108010F6
:2023A000261E001017F7BFE00E1C800017F7BFE0C4FFBF1015F7BFE017FFFFE017F8BFE0E5
:2023C0002E0A801817FCBFE0040180103A88091017FFBFE04400C01015FFFFE003008010BC
:2023E000CC3F801035008020060C000017F5BFE02608001017F5BFE0C4FFBF1015F5BFE08C
:2024000017FCBFE0040180103A8807003500C010060200000400BF0015F7BFE017FABFE081
:202420000C2080102617001017FCBFE03700801015FBBFE017F6BFE02604001017F6BFE0D9
:20244000C4FFBF1015F6BFE006050000170280E04400C0101502C0E017FBFFE00500C0102B
:2024600017F7BFE04400801015F7BFE017F6BFE01E0400101702C0E017F9BFE01E01801833
:202480000601000006B83F0017FCBFE0040280103700801015FABFE017FABFE00C08801027
:2024A00026F93F10170380E04C0080101E04001017FCBFE0040380103A8807003500C0100F
:2024C000170180E03A8837E0170000DF0401C0DE3A2800F804FAFFDE1505C0DF150400DF2C
:2024E000040400DF15FD3FE115FE7FE115FFBFE117FDBFE01700801015FCBFE017FCBFE0E0
:20250000040AC01017FDBFE0170280103A88091817FE7FE117FFBFE13A880F10C09E020131
:202520003A8837E01701C0DF170000DF0402C0DE3A2800F804FAFFDE1505C0DF150400DF8B
:20254000040400DF15FD3FE115FE7FE115FFBFE117FDBFE01700801015FCBFE017FCBFE07F
:20256000040AC01017FDBFE0170280103A88091817FE7FE117FFBFE13A880F1080C10201EE
:202580003A8837E01701C0DF170000DF0402C0DE3A2800F804FCFFDE1503C0DF150200DF2D
:2025A000040200DF15FF3FE117FFBFE01700801015FEBFE017FEBFE0040AC01017FFBFE0AD
:2025C000170280103A8809183A880B10809402013A8837E01701C0DF170000DF0402C0DE51
:2025E0003A2800F804F8FFDE1507C0DF150600DF040600DF15FD3FE115FE7FE115FFBFE1B1
:2026000017FDBFE01700801015FBBFE03A8805001E0400103A8805001E0200103A880500FA
:202620002602001044008000060100003A88050015FCBFE017FCBFE01E0F001017FDBFE07E
:202640000420C3001501C01017FBBFE00403801017FDFFE01701C0183500C010150000D890
:2026600017FE3FE117FF7FE13404800104A3893117FDFFE1C02504013A8837E01701C0DF27
:20268000170000DF0402C0DE3A2800F804FAFFDE1505C0DF150400DF040400DF15FF3FE19F
:2026A00017FFBFE015FCBFE017FCBFE01700801015FDBFE017FDBFE004028010370080109B
:2026C00015FEBFE017FDBFE0040280103A8807003500C01017FDBFE0040280103700801021
:2026E00017FEBFE00C2080102603001017FC3FE117FE7FE14072020117FEBFE00C10811073
:202700002603001017FC3FE117FE7FE1408002013A8837E01701C0DF170000DF0402C0DEEB
:202720003A2800F804FCFFDE150300DF040300DF15FE3FE115FF7FE117FFBFE0CC008010CD
:2027400026010010062B000017FEBFE01703801017FEBFE01702801017FEBFE017038010F8
:2027600044008010CC0F801015FDBFE017FEBFE01703801017FEFFE01700C0183700C01819
:202780003A88091817FEFFE03A888518040780100500001117FEBFE017FDFFE01503C010C3
:2027A00017FEBFE01703801044008010CC0F801015FDBFE017FEBFE01702C01017FDBFE07B
:2027C0001E0C801817FEBFE01701C010C4DFBF003A70861817FEBFE01501C01017FEBFE0A3
:2027E000170080100403801017FEFFE01701C0183500C0103A8837E0170000DF0401C0DE40
:202800003A2800F804FBFFDE150400DF040400DF15FC3FE115FD7FE117FCBFE01704C01063
:2028200017FCBFE0170580102632801817FCBFE0170680108C0080102603001017FDBFE0E3
:202840000C008210261D001017FCBFE01704801017FCBFE01705801017FCBFE01700801073
:202860000401801017FCFFE01704C01817FC3FE13A88C7200417C0180300C018CC3FC01851
:202880003500C01017FCBFE0170480104400801017FCFFE015048018CC0FC01017FCBFE002
:2028A0001504C01017FCBFE0170180101410C01017FCBFE01501C010060E000017FCBFE083
:2028C00017008010040280103700801015FDBFE017FDBFE00C0082101E06001017FCBFE00C
:2028E0001701C010C4EFBF003A70861817FCBFE01501C01017FCBFE01704C01017FCBFE04F
:20290000170580101E06801817FCBFE01701C010C4EFBE003A70861817FCBFE01501C01064
:2029200017FCBFE0170080100403801017FCFFE01701C0183500C0103A8837E0170000DFF1
:202940000401C0DE3A2800F804FDFFDE150200DF040200DF15FE3FE115FF7FE1060500000F
:2029600017FFBFE00C0090102602001044FDBF000606000017FEBFE01704C01017FEBFE05F
:20298000170580101EF6BF183A8805003A8837E0170000DF0401C0DE3A2800F804FEFFDE2E
:2029A0001501C0DF150000DF3A8839D83408800004FF8110170080102605001034088000AD
:2029C00004FF8110170080103AE83E100602000034088000041E82103A8837E01701C0DF44
:2029E000170000DF0402C0DE3A2800F804F2FFDE150DC0DF150C00DF040C00DF15FC3FE12F
:202A000015FD7FE115FEBFE115FFFFE105F43FE015F53FE017FFBFE00C0090103A000510AC
:202A2000CC3F801015F6BFE00613000017F5BFE04400801015F5BFE017FDBFE04400C01049
:202A400015FDFFE017FCFFE01702C01817FC3FE13A88C7200407C0180300C0180500C01033
:202A600017FCBFE01702801044008010CC0FC01017FCBFE01502C01017F5FFE017FEBFE044
:202A80000E05801817FCBFE01702C01017FCBFE0170380101EE5BF1817F5BFE01E250010BC
:202AA00017FCBFE01702C01017FCBFE0170380101E20801817F6BFE01E070010C09902010C
:202AC0003A880710C4028000150080184400800005F4BFE0061B00003A30050015F8BFE092
:202AE00017F8FFE084FFBF003A7084183A70011017F8BFE015F7BFE017FCBFE017018010F2
:202B00001420C01017FCBFE01501C01017FCBFE0170080100403801017FCFFE01701C01847
:202B20003500C01017F7BFE015F9BFE017F9BFE03A70011017F5BFE01E02001017FEBFE03D
:202B40001EB93F103A30050015FABFE017FAFFE084FFBF003A7084183A70011017FABFE04F
:202B600015F7BFE017FCBFE0170180101420C01017FCBFE01501C01017FCBFE0170080105B
:202B80000403801017FCFFE01701C0183500C01017F7BFE015FBBFE017FBBFE03A700110EF
:202BA00003F4BFE02602001044FDBF000601000017F5BFE03A8837E01701C0DF170000DF0F
:202BC0000402C0DE3A2800F804FEFFDE1501C0DF150000DF3A8839D83408800004FF81104C
:202BE00017008010260500103408800004FF8110170080103AE83E100602000034088000C8
:202C0000041E82103A8837E01701C0DF170000DF0402C0DE3A2800F804F2FFDE150DC0DFE8
:202C2000150C00DF040C00DF15FC3FE115FD7FE115FEBFE115FFFFE117FEBFE015F4BFE0FF
:202C400017FFBFE00C00901015F5BFE0063C000017FCBFE01705801044008010CC0F80108B
:202C600015F6BFE017FCBFE01704C01017F6BFE01E22801817F5BFE02605001080BC020164
:202C80003A880710C402800015008018062E00003A30050015F8BFE017F8FFE084FFBF00E9
:202CA0003A7084183A70011017F8BFE015F7BFE017FCBFE0170180101410C11017FCBFE0B9
:202CC0001501C01017FCBFE0170080100403801017FCFFE01701C0183500C01017F7BFE08A
:202CE00015F9BFE017F9BFE03A70011017FCBFE01704C01017F6BFE026FCBF1817F4BFE0D1
:202D0000C4FFBF1015F4BFE017FCBFE01705C01017FDBFE04400001115FD3FE1030080100E
:202D20003A88091017FCBFE03A88C510041780100500001117FCBFE017F6FFE01505C01026
:202D400017F4BFE01EC23F103A30050015FABFE017FAFFE084FFBF003A7084183A7001104A
:202D600017FABFE015F7BFE017FCBFE0170180101410C11017FCBFE01501C01017FCBFE05F
:202D8000170080100403801017FCFFE01701C0183500C01017F7BFE015FBBFE017FBBFE001
:202DA0003A70011017FEFFE017F4BFE03AC885183A8837E01701C0DF170000DF0402C0DEF1
:202DC0003A2800F804FDFFDE1502C0DF150100DF040100DF15FF3FE117FF3FE13408400145
:202DE00004004229C00204013A8837E01701C0DF170000DF0402C0DE3A2800F804F7FFDE41
:202E00001508C0DF150700DF040700DF15FC3FE115FD7FE115FEBFE115FFFFE115F93FE09A
:202E200017FCBFE015FABFE017FABFE0170B801017FDFFE00E06801817FDFFE017FFBFE089
:202E40003A88851817FAFFE0170BC0180E02801884FCBF000617000017FABFE0170AC01084
:202E600017FDBFE03A88871817FFBFE017FE3FE13A880B183A880D1040E3010117FABFE0BB
:202E8000172F8010260A001017FABFE0172F8010370080100C01801015FBBFE017FBBFE0D2
:202EA000200180101E020010C4FEBF0015F9BFE017F9BFE03A8837E01701C0DF170000DFCE
:202EC0000402C0DE3A2800F804FAFFDE150500DF040500DF15FD3FE115FE7FE115FFBFE1DF
:202EE00015FB3FE017FDBFE015FCBFE017FFBFE02604001017FCBFE0170CC01017FFBFE0F7
:202F00001500C01017FCBFE0170C80101E03001004FDBF0015FBBFE0060D000017FCBFE002
:202F2000170C8010500280101E03001084FCBF0015FBBFE00606000017FEBFE026040010E3
:202F400017FCBFE0040DC01017FEBFE01500C01017FBBFE03A8837E0170000DF0401C0DE22
:202F60003A2800F804F9FFDE1506C0DF150500DF040500DF15FE3FE115FF7FE115FB3FE0AC
:202F800017FEBFE015FCBFE017FCBFE0170B801017FFFFE01602801884FCBF000646000039
:202FA00017FCBFE0172F80102603001017FCBFE0172E80102602001044FBBF00063E00004F
:202FC00017FCBFE0173F8010C4FFFF1017FFBFE03A7084182602001084FABF0006360000DB
:202FE00017FC3FE100B4030115FBBFE017FBBFE02602001017FBBFE0062F000017FCBFE0B6
:20300000172F80100401C01017FCBFE0172F801004018010370080102C003C1134208000D4
:20302000C4FFBF103AB084203500801817FFBFE00E010010C4008010BAD0051015FDBFE02B
:2030400017FCBFE0172F80100401801017FCFFE0172FC0180401C0183700C0182C003C19D6
:2030600017FDFFE0341CC0183AB0C6203500C01017FC3FE100B4030115FBBFE017FC3FE193
:2030800000BD030115FBBFE017FCBFE0172F80100401C01017FCBFE0172F80100401801046
:2030A0003700001134008400C4FFBF103AB084203500801817FBBFE03A8837E01701C0DFE2
:2030C000170000DF0402C0DE3A2800F804F2FFDE150DC0DF150C00DF040C00DF15FC3FE148
:2030E00015FD7FE115FEBFE115FFFFE115F43FE017FCBFE015F8BFE015F53FE017FEBFE054
:2031000015F6BFE017F8BFE0170B801017FDFFE00E0A801817F8BFE0170B801017FEFFE0AE
:203120000E06801817F8BFE0170BC01017FEBFE03AC88718170280E00E02801884FCBF008E
:20314000068E000017F8BFE0172F80102603001017F8BFE0172E80102602001044FBBF0065
:203160000686000017F83FE100B4030115F4BFE017F4BFE02602001017F4BFE0067F000023
:2031800017F8BFE0172F80100401C01017F8BFE0172F801004018010370080102C003C117D
:2031A00034208000C4FFBF103AB084203500801806640000C4FFBF0015FBBFE017F6BFE007
:2031C000CC0080101E1D001017F6BFE00401C01004FFBF003A70841815F7BFE017F7FFE027
:2031E00017F6BFE03AC885181702C0E00E0180183A88051815F9BFE017F5BFE017FFFFE0F8
:203200003A88871817F9BFE004FB3FE13A880B183A880D1040E3010117F5FFE017F9BFE0FC
:203220003A88851815F5BFE01702C0E017F9BFE03AC88518150280E0062E000017F6BFE028
:20324000CC00801015FABFE017F6FFE017FABFE03AC8851815F6BFE017F6BFE00401C010FE
:2032600004FFBF003A70841815F7BFE017F7FFE017F6BFE03AC889181702C0E017FABFE0F6
:203280003A8887183A8805200E0180183A88051815F9BFE004FBFFE017FABFE03A888518C6
:2032A0003A88091017F5BFE017FFFFE03A888B1817F9FFE017FABFE03AC885183A880D1011
:2032C00040E3010117F9FFE017FABFE03AC8851817F5FFE03A88851815F5BFE017FAFFE0A8
:2032E00017F9BFE03AC885181702C0E03A888518150280E017F8BFE0170AC01017F6BFE0A6
:203300003A88851817FBFFE03500C01017F83FE100B4030115F4BFE017F4BFE026010010E8
:20332000060A000017F83FE100C6030115F4BFE017F4BFE0260100100604000017F7BFE044
:2033400015F6BFE0170280E01E9A3F1017F8BFE0172F80100401C01017F8BFE0172F801066
:20336000040180103700001134008400C4FFBF103AB084203500801817F4BFE03A8837E048
:203380001701C0DF170000DF0402C0DE3A2800F804F1FFDE150EC0DF150D00DF040D00DFFD
:2033A00015FC3FE115FD7FE115FEBFE115FFFFE115F43FE017FFBFE015F8BFE017FDBFE087
:2033C00015F9BFE017FCBFE015FABFE017FABFE0170B801017FDFFE00E06801817FABFE02F
:2033E000170BC01017FDBFE03AC8871817FFBFE00E02801884FCBF000696000015F53FE026
:203400000687000017FAFFE017F5BFE03A910410040D80103A8885181700801017FDFFE00B
:20342000167C801817FAFFE017F5BFE03A910410040D80103A8885181700C01017FA3FE1D0
:2034400017F5BFE03A910410040E80103A888520170080103A88851817FDFFE00E6D8018CD
:2034600017FAFFE017F5BFE03A910410040D80103A8885181700801015F7BFE015F63FE056
:20348000065C000017FDFFE017F7BFE0164D801817FAFFE017F5BFE0040180103A91041020
:2034A0003A8885181700C01017F7BFE03A88851817FDFFE00E43801817FAFFE017F5BFE043
:2034C000040180103A9104103A8885181700C01017F7BFE03A88871817FDBFE03AC88518D2
:2034E00015FBBFE017FBFFE017FFBFE00E0180183A88051815FBBFE017FABFE0170AC010A1
:2035000017FDBFE03A88871817FBBFE017FE3FE13A880B183A880D104074040126130010EB
:2035200017FABFE01708801017FAFFE03A88091817F77FE13AE83E1015F4BFE017F4BFE029
:203540001E0A001017FABFE01709801017FA3FE117FBFFE01500C0D817F77FE117FDBFE1E2
:2035600017FEFFE13AE83E1015F4BFE017FFFFE017FBBFE0262E801817F4BFE01E2C0010A8
:2035800017FFFFE017FBBFE03AC8851815FFBFE017FAFFE017F5BFE0040180103A91041024
:2035A0003A8885181700C01017F7BFE03A88851815FDBFE017FBBFE017FEFFE03A88851804
:2035C00015FEBFE017FAFFE017F5BFE0040180103A9104103A8885181700801017F7FFE037
:2035E0003A88851815F7BFE017F6BFE04400801015F6BFE017FAFFE017F5BFE03A9104101D
:20360000040F80103A8885181700801017F6FFE0169CBF1817F5BFE04400801015F5BFE064
:2036200017FABFE0170C801017F5FFE01675BF1817FABFE0170AC01017F9BFE03A88871829
:2036400017F8BFE03A8809183A880B1000F7030117F4BFE03A8837E01701C0DF170000DFD1
:203660000402C0DE3A2800F804F5FFDE150AC0DF150900DF150800DC040900DF15FE3FE1A3
:2036800015F83FE015F93FE015FA3FE015FB3FE015FC3FE015F73FE017FEBFE0040D8010C4
:2036A00015FDBFE017FEBFE0172F80102619001017FEBFE0172F8010370080100C0880108B
:2036C00015F8BFE017FEBFE0172F8010370080100C10801015F9BFE017FEBFE0172F80100A
:2036E000370080100C20801015FABFE017FEBFE0172F8010370080100C40801015FBBFE0BD
:2037000017FEBFE0172F8010370080100C80801015FCBFE017FEBFE0173080105800801019
:203720001E2F001017F8BFE0200880101E2C001017F7BFE03A91041017FDFFE03A8885188E
:2037400017FEFFE01731C0181500C01017F7BFE03A91041017FDFFE03A88851817FEFFE09E
:203760001732001917FEFFE01731C0183AC8C7204400C0181501C01017F7BFE03A9104105C
:2037800017FDFFE03A88A11817FEFFE017F7BFE03A910410040E80103A8885181700C01053
:2037A00017FEBFE0173F80103A8809183A880B10C0D401011502808017F7BFE03A91041076
:2037C00017FDFFE03A88851817FEFFE0173FC0181503C01017F7BFE04400801015F7BFE061
:2037E00017FEBFE017338010580080101E2F001017F9BFE0201080101E2C001017F7BFE080
:203800003A91041017FDFFE03A88851817FEFFE01734C0181500C01017F7BFE03A910410EF
:2038200017FDFFE03A88851817FEFFE01735001917FEFFE01734C0183AC8C7204400C018C1
:203840001501C01017F7BFE03A91041017FDFFE03A88A11817FEFFE017F7BFE03A91041008
:20386000040E80103A8885181700C01017FEBFE0173F80103A8809183A880B10C0D4010170
:203880001502808017F7BFE03A91041017FDFFE03A88851817FEFFE0173FC0181503C01029
:2038A00017F7BFE04400801015F7BFE017FEBFE017368010580080101E2F001017FABFE056
:2038C000202080101E2C001017F7BFE03A91041017FDFFE03A88851817FEFFE01737C018C6
:2038E0001500C01017F7BFE03A91041017FDFFE03A88851817FEFFE01738001917FEFFE0B5
:203900001737C0183AC8C7204400C0181501C01017F7BFE03A91041017FDFFE03A88A1189C
:2039200017FEFFE017F7BFE03A910410040E80103A8885181700C01017FEBFE0173F801085
:203940003A8809183A880B10C0D401011502808017F7BFE03A91041017FDFFE03A8885181C
:2039600017FEFFE0173FC0181503C01017F7BFE04400801015F7BFE017FEBFE0173980107D
:20398000580080101E2F001017FBBFE0204080101E2C001017F7BFE03A91041017FDFFE068
:2039A0003A88851817FEFFE0173AC0181500C01017F7BFE03A91041017FDFFE03A888518C8
:2039C00017FEFFE0173B001917FEFFE0173AC0183AC8C7204400C0181501C01017F7BFE0D3
:2039E0003A91041017FDFFE03A88A11817FEFFE017F7BFE03A910410040E80103A888518F9
:203A00001700C01017FEBFE0173F80103A8809183A880B10C0D401011502808017F7BFE00B
:203A20003A91041017FDFFE03A88851817FEFFE0173FC0181503C01017F7BFE044008010CA
:203A400015F7BFE017FEBFE0173C8010580080101E2F001017FCBFE0208080101E2C0010A3
:203A600017F7BFE03A91041017FDFFE03A88851817FEFFE0173DC0181500C01017F7BFE0B6
:203A80003A91041017FDFFE03A88851817FEFFE0173E001917FEFFE0173DC0183AC8C7208A
:203AA0004400C0181501C01017F7BFE03A91041017FDFFE03A88A11817FEFFE017F7BFE069
:203AC0003A910410040E80103A8885181700C01017FEBFE0173F80103A8809183A880B10C5
:203AE000C0D401011502808017F7BFE03A91041017FDFFE03A88851817FEFFE0173FC01819
:203B00001503C01017F7BFE04400801015F7BFE017FEBFE017F7FFE0150CC01017FEBFE04B
:203B20003A88091040DC020104FFFFE61702C0DF170100DF170000DC0403C0DE3A2800F802
:203B400004FAFFDE1505C0DF150400DF040400DF15FF3FE115FC3FE0F40280000498AB10C1
:203B600015FEBFE0F40280000498AB1015FDBFE0060C00004400000100CF030117FEBFE037
:203B80002608001017FDBFE0C4FFBF1015FDBFE017FDBFE01E03001004E3BF0015FCBFE0B7
:203BA0000605000017FFBFE0172F801037008010CC0080101EEF3F1017FCBFE03A8837E065
:203BC0001701C0DF170000DF0402C0DE3A2800F804FAFFDE1505C0DF150400DF040400DFC7
:203BE00015FF3FE115FC3FE0F40280000498AB1015FEBFE0F40280000498AB1015FDBFE064
:203C0000060C00004400000100CF030117FEBFE02608001017FDBFE0C4FFBF1015FDBFE092
:203C200017FDBFE01E03001004E3BF0015FCBFE00605000017FFBFE0172F801037008010ED
:203C40000C04801026EF3F1017FCBFE03A8837E01701C0DF170000DF0402C0DE3A2800F82A
:203C600004FAFFDE1505C0DF150400DF040400DF15FF3FE115FC3FE0F40280000498AB10A0
:203C800015FEBFE0F40280000498AB1015FDBFE0060C00004400000100CF030117FEBFE016
:203CA0002608001017FDBFE0C4FFBF1015FDBFE017FDBFE01E03001004E3BF0015FCBFE096
:203CC0000605000017FFBFE0172F8010370080100C02801026EF3F1017FCBFE03A8837E0FA
:203CE0001701C0DF170000DF0402C0DE3A2800F804FAFFDE1505C0DF150400DF040400DFA6
:203D000015FF3FE14402800015FDBFE017FD3FE1F403400104905029C0E00101B498000190
:203D2000048016213A880B10C0DF010134002001C4FF3F213A880B10C0DF010117FF3FE11E
:203D40003A880B10C0DF010115FEBFE017FEBFE0262A001015FC3FE0061700003400A000FE
:203D6000C4FFBF10C4FFBF101EFE3F1017FD3FE1F403400104905029C0E00101B49800014C
:203D8000048016213A880B10C0DF010134002001C4FF3F213A880B10C0DF01013A8807101B
:203DA00017FFBFE03AC8C51015FFBFE017FCBFE04400801015FCBFE017FCFFE017FEBFE0E8
:203DC00016E6BF1817FD3FE1F403400104905029C0E00101B4980001048016213A880B1010
:203DE000C0DF01013A88091017FF7FE1C0E00101C4FFBF101EFE3F10060D000017FD3FE1EB
:203E0000F403400104905029C0E00101B4980001048016213A880B10C0DF01013A8809105A
:203E200017FF7FE1C0E00101C4FFBF1016FEBF003A8805003A8837E01701C0DF170000DFB8
:203E40000402C0DE3A2800F804FEFFDE1501C0DF150000DF3A8839D83408800004FF8110B9
:203E600017008010260500103408800004FF8110170080103AE83E10060200003408800035
:203E8000041E82103A8837E01701C0DF170000DF0402C0DE3A2800F804FBFFDE1504C0DF56
:203EA000150300DF040300DF15FF3FE117FFBFE01608001017FF3FE104034001C0E00101EE
:203EC0003A88071034088000048980103A888518060100003A88050015FDBFE017FDBFE09F
:203EE0002619001017FDBFE017008010170480102606001017FDBFE017008010170480102D
:203F000017FD3FE13AE83E10060100003A88050015FEBFE017FF3FE1C052040117FEBFE07C
:203F20000E07001080E403013A88071017FEBFE03AC8850015008018C4FFBF0006070000A4
:203F40003A8805000605000080E403013A8807104414800015008018C4FFBF003A8837E06E
:203F60001701C0DF170000DF0402C0DE3A2800F804FDFFDE150200DF040200DF15FE3FE1AA
:203F800015FF7FE13A8837E0170000DF0401C0DE3A2800F804FFFFDE150000DF3A8839D83A
:203FA0003A8837E0170000DF0401C0DE3A2800F804FCFFDE150300DF040300DF15FD3FE149
:203FC00015FE7FE115FFBFE117FFBFE03A8837E0170000DF0401C0DE3A2800F804FEFFDE5A
:203FE0001501C0DF150000DF3A8839D83408800004FF811017008010260500103408800057
:2040000004FF8110170080103AE83E100602000034088000041E82103A8837E01701C0DFED
:20402000170000DF0402C0DE3A2800F804FAFFDE1505C0DF150400DF040400DF15FE3FE1E6
:2040400015FF7FE117FEBFE02603001017FEBFE0170280101E060010C0FD03013A880710D4
:20406000840580001500801884FABF000613000017FEBFE017FFFFE015FCFFE015FDBFE0EA
:2040800017FDBFE017FCFFE01501C01017FCBFE01700C01017FDBFE01500C01017FCBFE0B2
:2040A0001700801017FDFFE01501C01017FCBFE017FDFFE01500C0103A8805003A8837E056
:2040C0001701C0DF170000DF0402C0DE3A2800F804FDFFDE1502C0DF150100DF040100DFC8
:2040E0003404800004CC921015FFBFE00606000017FFBFE0170080103AE83E1017FFBFE056
:2041000004FFBF1015FFBFE017FFFFE03404800004CD92102EF6BF183A8837E01701C0DF6F
:20412000170000DF0402C0DE3A2800F804FDFFDE1502C0DF150100DF040100DF3404800066
:2041400004CC921015FFBFE00606000017FFBFE0170080103AE83E1017FFBFE004FFBF10DB
:2041600015FFBFE017FFFFE03404800004CD92102EF6BF183A8837E01701C0DF170000DFEB
:204180000402C0DE3A2800F804FCFFDE1503C0DF150200DF040200DF15FF3FE117FF3FE148
:2041A000040E60D1C05C040115FEBFE017FEBFE02609001017FEBFE017038010260600105C
:2041C00017FEBFE01703801017FE3FE117FF7FE13AE83E100601000017FEBFE03A8837E0D2
:2041E0001701C0DF170000DF0402C0DE3A2800F804FDFFDE1502C0DF150100DF040100DFA7
:2042000015FF3FE117FFBFE02607001017FFBFE0170480102604001017FFBFE0170480107E
:2042200017FF3FE13AE83E103A8801003A8837E01701C0DF170000DF0402C0DE3A2800F891
:2042400004FFFFDE150000DF3A8839D83A8837E0170000DF0401C0DE3A2800F804F9FFDE11
:204260001506C0DF150500DF040500DF15FC3FE115FD7FE115FEBFE115FFFFE1170280E0E0
:20428000150080D817FC3FE117FD7FE117FEBFE117FFFFE1C04304013A8837E01701C0DFC7
:2042A000170000DF0402C0DE3A2800F804F9FFDE150600DF040600DF15FE3FE115FF7FE1A6
:2042C00017FFBFE015FABFE03A30050015FBBFE017FBFFE084FFBF003A7084183A70011029
:2042E00017FBBFE015FCBFE017FABFE04400C0003A9884183A88071034088000041C8210F4
:20430000170080103AB0861834088000041C82101500C01034088000041C82101700801006
:20432000FA70011017FCBFE015FDBFE017FDBFE03A7001103A8805003A8801003A8837E0CE
:20434000170000DF0401C0DE3A2800F804F9FFDE150600DF040600DF15FE3FE115FF7FE106
:2043600017FFBFE015FABFE03A30050015FBBFE017FBFFE084FFBF003A7084183A70011088
:2043800017FBBFE015FCBFE017FABFE04400C0003A9884183A3084003A8807103408800017
:2043A000041C8210170080103A70861834088000041C82101500C01034088000041C82109B
:2043C00017008010FA70011017FCBFE015FDBFE017FDBFE03A7001103A8805003A88010060
:2043E0003A8837E0170000DF0401C0DE3A2800F804FCFFDE150300DF040300DF15FE3FE104
:2044000015FF7FE1FA30050015FDBFE017FFBFE04400C0003A9884183A88071017FDBFE095
:204420003A7084183AC00410CC3F80103A8837E0170000DF0401C0DE3A2800F804F5FFDEEB
:20444000150AC0DF150900DF040900DF15FC3FE115FD7FE115FEBFE115FFFFE184FABF002E
:2044600015F7BFE017FDBFE015F8BFE017F8BFE0080880101E2700103A30050015FABFE072
:2044800017FAFFE084FFBF003A7084183A70011017FABFE015F9BFE034088000047F8210BB
:2044A00017F8FFE0FA9006183A88C51017FEFFE01500C01034088000047F821017F8FFE037
:2044C000FA9006180401C0183A88C51017FFFFE01500C01017FEBFE02605001017F8BFE049
:2044E00017FC3FE13A880B10C02A04010604000017F8BFE017FC3FE13A880B10C0340401FC
:2045000015F7BFE017F9BFE015FBBFE017FBBFE03A70011017F7BFE03A8837E01701C0DFE9
:20452000170000DF0402C0DE3A2800F804FCFFDE1503C0DF150200DF150100DC040200DF26
:2045400015FE3FE117FEBFE0D00080101E110010340800040489008417FEBFE03A880910F5
:2045600004034001C0E00101040280103A88858015000010340800040489008417FEBFE0CA
:204580003A88091004034001C0E001013A8885801500001004FFFFE61702C0DF170100DFD3
:2045A000170000DC0403C0DE3A2800F804FFFFDE150000DF3A8839D8FA7001003A8837E01E
:2045C000170000DF0401C0DE3A2800F804FAFFDE1505C0DF150400DF040400DF15FE3FE142
:2045E00015FF7FE117FFBFE01700801015FCBFE017FE3FE1007C04014400801015FDBFE000
:20460000060D000017FCBFE01702C01017FDBFE03A88091817FE7FE13A880D104074040149
:204620001E02001017FCBFE00607000017FCBFE01700801015FCBFE017FCFFE017FFBFE0DB
:204640001EF0BF183A8805003A8837E01701C0DF170000DF0402C0DE3A2800F804FEFFDE4B
:20466000150100DF040100DF15FF3FE117FFBFE084FEBF102804C0101E1A0018BA9006107B
:204680003404800004A591103A888518170080103A680010D4461000D4461000E4461000D2
:2046A000E4461000E4461000D4461000DC461000E4461000D4461000D4461000E446100062
:2046C000D4461000DC461000E4461000E4461000D446100044008000060300003A8805004C
:2046E000060100003A8805003A8837E0170000DF0401C0DE3A2800F83A880B203A880D0064
:204700003A8809003A880F008185040104FEFFDE3A880B00150000DC1501C0DF3A8821209D
:20472000C0960401340880000403821017000011170F8020260100103AE83E103A880980E9
:2047400000B00401C400C0012E1980393AB044213A70C411260F0010030080200300C0287E
:204760001E15C01084FFBF31C4FFFF0106040000030080200300C028C4FFBF311E0EC010B9
:2047800044000021440040291EF9FF313A8805003A2800F81700C020170080281E0480182F
:2047A00004FFBF31040100210401402936F9BF391EE93F3006F53F003AC8C5103A2800F86A
:2047C000CC0080202620001007008020262000103A880520060200000700C01026180018FE
:2047E00044008010CC00C0101EFB3F181700C010F4BFFF01C4BFFF393A30CA007420A0011B
:204800003A88C7190420A0313A7046193A7086191E090018040180101700C0103A88CB194E
:204820003A30C6003A70C6283A70861926F93F1806010000440080100700C0101EFD3F18CD
:204840003AC805113A2800F83A88052006E73F003A8805003A2800F83408800004FAFFDE1B
:2048600004038210150300DC17000014150440DC1505C0DF175280803A88232026360010B8
:204880001701C010C4070001160EC0204400401A1E2100888400C0183A88C7183A88C7185D
:2048A000150140123A88C710150040193A8805001705C0DF170440DC170300DC0406C0DE32
:2048C0003A2800F834008000040080102625001004640001150040D9150180D91502C0D925
:2048E00000000000170040D9170180D91702C0D9261C00101752C0801501001044004002BE
:204900001500C0101552808015620010156300103A88070026DF3F883A88D1183A881142E7
:204920003A8811121522804144000001176280113A98C8203AB00C31156280111542C0410A
:20494000840080011ED3BF89176380113AB008311563001106CF3F00045380801552808090
:2049600006C73F00C4FFBF0006D13F0034088000040382101700801004F4FFDE150880DD48
:20498000150080D804528010150600DD150480DC150BC0DF150A00DF1509C0DD150740DDA6
:2049A0001505C0DC150340DC150200DC3A8825203A882928150180D8C4FFBF05170080D89C
:2049C0001752C014261D0098170140DD17018098C4FF3F17160D00E0440000143A8821847F
:2049E0003A882184042040843A88639C3A88219C261E00A017408080261C0015C4FF3FE7AD
:204A000004FF3F8404FF7F8C1EF9BFE5340080000400801026090010170180981E310010F1
:204A200017008098263400103A880998150080A8000000001700C0AC1EE43F98170BC0DF20
:204A4000170A00DF1709C0DD170880DD170740DD170600DD1705C0DC170480DC170340DC83
:204A6000170200DC040CC0DE3A2800F8170180981700C080C4FFBF10261500171500008039
:204A800026DE3F18440080003A980817176280981701C09D3A7084201E0600103AE83E1806
:204AA000170180981EC5FF15170080A826D3FF1406C23F00176380983A7084201E06001069
:204AC000170040893A8809903AE83E1806F43F001501009F06EA3F00170000893AE83E18EE
:204AE00006EF3F00170080983A882B983A8827101EB63F9806D13F003A88050006FA3F000E
:204B000004FDFFDE150200DF040200DF15FF3FE13A88010017FFBFE015FEBFE017FEBFE0CA
:204B20002602001070F02A0006010000B0F02A0006FF3F002F6465762F7561727400000045
:204B40002F6465762F6F6E636869705F666C6173685F305F64617461000000002F646576D4
:204B60002F6E756C6C0000004300000000000000000000000000200000000000942510001F
:204B8000D424100034251000000000000000000000000000802020000000000000000000E4
:204BA0000000000000000000000000000100000000000000000000000000000000000000F4
:204BC0000000000000000000000000000000000000000000000000000000000000000000D5
:204BE0000000000000000000000000000000000000000000000000000000000000000000B5
:204C0000000000000000000000000000000000000000000000000000000000000000000094
:204C20000000000000000000000000000000000000000000000000000C0020000000000048
:204C40000000000090331000FC2D1000C82E1000642F1000CC3010000000100000C00800BB
:204C6000000000000000000000000000000000000000000000000000000000000000000034
:204C8000000000000000000000000000000000000000000000000000000000000000000014
:204CA0000000000000000000000000000000000000000000000000000000000000000000F4
:204CC0000000000000000000000000000000000000000000000000000000000000000000D4
:204CE000000000000000000000000000102120000100000000000000FF3F00000100000023
:204D000000400000FF7F00000100000000800000FFDF02000100000000E00200FF9F0400EF
:204D20000100000000A00400FFBF080000100000F0072000F0072000280020000000000082
:204D40000000000000000000B03F1000000000000000000000000000FC0120000000000037
:204D600000000000FC0120000000000000000000FC012000000000000000000000000000F9
:204D8000000000000000000000000000000000000000000000000000000000000000000013
:204DA0000000000000000000000000000000000000000000000000000000000000000000F3
:204DC0000000000000000000000000000000000000000000000000000000000000000000D3
:204DE0000000000000000000000000000000000000000000000000000000000000000000B3
:204E0000000000000000000000000000000000000000000000000000000000000000000092
:204E2000000000000000000000000000000000000000000000000000000000000000000072
:204E4000000000000000000000000000000000000000000000000000000000000000000052
:204E6000000000000000000000000000000000000000000000000000000000000000000032
:204E8000000000000000000000000000000000000000000000000000000000000000000012
:204EA0000000000000000000000000000000000000000000000000000000000000000000F2
:204EC00000000000000000000000000000000000000000000000000000000000900620001C
:204EE000F8062000600720000000000000000000000000000000000000000000000000000D
:204F000000000000000000000000000034002000000000000000000000000000000000003D
:204F2000000000000000000000000000000000000000000000000000000000000000000071
:204F4000000000000000000000000000000000000000000000000000000000000000000051
:204F6000000000000000000000000000000000000000000000000000000000000100000030
:204F8000000000000E33CDAB34126DE6ECDE05000B000000000000000000000000000000E5
:204FA0000000000000000000000000000000000000000000000000000000000000000000F1
:204FC0000000000000000000000000000000000000000000000000000000000000000000D1
:204FE0000000000000000000000000000000000000000000000000000000000000000000B1
:20500000000000000000000000000000000000000000000000000000000000000000000090
:20502000000000000000000000000000000000000000000000000000000000000000000070
:20504000000000000000000000000000000000000000000000000000000000000000000050
:20506000000000000000000000000000000000000000000000000000000000000000000030
:20508000000000000000000000000000000000000000000000000000000000000000000010
:2050A0000000000000000000000000000000000000000000000000000000000000000000F0
:2050C0000000000000000000000000000000000000000000000000000000000000000000D0
:2050E0000000000000000000000000000000000000000000000000000000000000000000B0
:2051000000000000000000000000000000000000000000000000000000000000000000008F
:2051200000000000000000000000000000000000000000000000000000000000000000006F
:2051400000000000000000000000000000000000000000000000000000000000000000004F
:2051600000000000000000000000000000000000000000000000000000000000000000002F
:2051800000000000000000000000000000000000000000000000000000000000000000000F
:2051A0000000000000000000000000000000000000000000000000000000000000000000EF
:2051C0000000000000000000000000000000000000000000000000000000000000000000CF
:2051E0000000000000000000000000000000000000000000000000000000000000000000AF
:2052000000000000000000000000000000000000000000000000000000000000000000008E
:2052200000000000000000000000000000000000000000000000000000000000000000006E
:2052400000000000000000000000000000000000000000000000000000000000000000004E
:2052600000000000000000000000000000000000000000000000000000000000000000002E
:2052800000000000000000000000000000000000000000000000000000000000000000000E
:2052A0000000000000000000000000000000000000000000000000000000000000000000EE
:2052C0000000000000000000000000000000000000000000000000000000000000000000CE
:2052E00000000000000000000000000000000000000000000000000000000000FFBF0800E8
:2053000000A00400BC0820002C01B400BC0920007C082000E0072000E0072000E80720007E
:20532000E8072000FC012000FC012000FFFFFFFF000000000008200000082000FFFFFFFFDC
:20534000A4032000A4032000000000000000000000000000000000000000000000000000BF
:2053600000000000000000000000000000000000000000000000000000000000000000002D
:2053800000000000000000000000000000000000000000000000000000000000000000000D
:2053A0000000000000000000000000000000000000000000000000000000000000000000ED
:2053C0000000000000000000000000000000000000000000000000000000000000000000CD
:0200000280007C
:00000001FF
